{"abi":[{"type":"constructor","inputs":[{"name":"_agix","type":"address","internalType":"address"},{"name":"_priceFeed","type":"address","internalType":"address"}],"stateMutability":"nonpayable"},{"type":"function","name":"BPS","inputs":[],"outputs":[{"name":"","type":"uint256","internalType":"uint256"}],"stateMutability":"view"},{"type":"function","name":"PRICE_PRECISION","inputs":[],"outputs":[{"name":"","type":"uint256","internalType":"uint256"}],"stateMutability":"view"},{"type":"function","name":"agix","inputs":[],"outputs":[{"name":"","type":"address","internalType":"contract AGIX"}],"stateMutability":"view"},{"type":"function","name":"basketTokens","inputs":[{"name":"","type":"uint256","internalType":"uint256"}],"outputs":[{"name":"","type":"address","internalType":"address"}],"stateMutability":"view"},{"type":"function","name":"deposit","inputs":[{"name":"amounts","type":"uint256[]","internalType":"uint256[]"}],"outputs":[{"name":"agixMinted","type":"uint256","internalType":"uint256"}],"stateMutability":"nonpayable"},{"type":"function","name":"depositsPaused","inputs":[],"outputs":[{"name":"","type":"bool","internalType":"bool"}],"stateMutability":"view"},{"type":"function","name":"getBasketLength","inputs":[],"outputs":[{"name":"","type":"uint256","internalType":"uint256"}],"stateMutability":"view"},{"type":"function","name":"getBasketTokens","inputs":[],"outputs":[{"name":"","type":"address[]","internalType":"address[]"}],"stateMutability":"view"},{"type":"function","name":"getNav","inputs":[],"outputs":[{"name":"nav","type":"uint256","internalType":"uint256"}],"stateMutability":"view"},{"type":"function","name":"getNavPerShare","inputs":[],"outputs":[{"name":"navPerShare","type":"uint256","internalType":"uint256"}],"stateMutability":"view"},{"type":"function","name":"getWeights","inputs":[],"outputs":[{"name":"tokens","type":"address[]","internalType":"address[]"},{"name":"currentWeights","type":"uint256[]","internalType":"uint256[]"},{"name":"_targetWeights","type":"uint256[]","internalType":"uint256[]"}],"stateMutability":"view"},{"type":"function","name":"minDepositUsd","inputs":[],"outputs":[{"name":"","type":"uint256","internalType":"uint256"}],"stateMutability":"view"},{"type":"function","name":"owner","inputs":[],"outputs":[{"name":"","type":"address","internalType":"address"}],"stateMutability":"view"},{"type":"function","name":"priceFeed","inputs":[],"outputs":[{"name":"","type":"address","internalType":"contract IPriceFeed"}],"stateMutability":"view"},{"type":"function","name":"rebalancer","inputs":[],"outputs":[{"name":"","type":"address","internalType":"address"}],"stateMutability":"view"},{"type":"function","name":"redeem","inputs":[{"name":"agixAmount","type":"uint256","internalType":"uint256"}],"outputs":[{"name":"amounts","type":"uint256[]","internalType":"uint256[]"}],"stateMutability":"nonpayable"},{"type":"function","name":"redemptionsPaused","inputs":[],"outputs":[{"name":"","type":"bool","internalType":"bool"}],"stateMutability":"view"},{"type":"function","name":"renounceOwnership","inputs":[],"outputs":[],"stateMutability":"nonpayable"},{"type":"function","name":"setBasket","inputs":[{"name":"tokens","type":"address[]","internalType":"address[]"},{"name":"weights","type":"uint256[]","internalType":"uint256[]"}],"outputs":[],"stateMutability":"nonpayable"},{"type":"function","name":"setDepositsPaused","inputs":[{"name":"paused","type":"bool","internalType":"bool"}],"outputs":[],"stateMutability":"nonpayable"},{"type":"function","name":"setMinDepositUsd","inputs":[{"name":"_minDepositUsd","type":"uint256","internalType":"uint256"}],"outputs":[],"stateMutability":"nonpayable"},{"type":"function","name":"setPriceFeed","inputs":[{"name":"_priceFeed","type":"address","internalType":"address"}],"outputs":[],"stateMutability":"nonpayable"},{"type":"function","name":"setRebalancer","inputs":[{"name":"_rebalancer","type":"address","internalType":"address"}],"outputs":[],"stateMutability":"nonpayable"},{"type":"function","name":"setRedemptionsPaused","inputs":[{"name":"paused","type":"bool","internalType":"bool"}],"outputs":[],"stateMutability":"nonpayable"},{"type":"function","name":"targetWeights","inputs":[{"name":"","type":"address","internalType":"address"}],"outputs":[{"name":"","type":"uint256","internalType":"uint256"}],"stateMutability":"view"},{"type":"function","name":"tokenDecimals","inputs":[{"name":"","type":"address","internalType":"address"}],"outputs":[{"name":"","type":"uint8","internalType":"uint8"}],"stateMutability":"view"},{"type":"function","name":"transferForRebalance","inputs":[{"name":"token","type":"address","internalType":"address"},{"name":"to","type":"address","internalType":"address"},{"name":"amount","type":"uint256","internalType":"uint256"}],"outputs":[],"stateMutability":"nonpayable"},{"type":"function","name":"transferOwnership","inputs":[{"name":"newOwner","type":"address","internalType":"address"}],"outputs":[],"stateMutability":"nonpayable"},{"type":"event","name":"BasketUpdated","inputs":[{"name":"tokens","type":"address[]","indexed":false,"internalType":"address[]"},{"name":"weights","type":"uint256[]","indexed":false,"internalType":"uint256[]"}],"anonymous":false},{"type":"event","name":"Deposit","inputs":[{"name":"user","type":"address","indexed":true,"internalType":"address"},{"name":"agixMinted","type":"uint256","indexed":false,"internalType":"uint256"},{"name":"usdValue","type":"uint256","indexed":false,"internalType":"uint256"}],"anonymous":false},{"type":"event","name":"DepositsPaused","inputs":[{"name":"paused","type":"bool","indexed":false,"internalType":"bool"}],"anonymous":false},{"type":"event","name":"OwnershipTransferred","inputs":[{"name":"previousOwner","type":"address","indexed":true,"internalType":"address"},{"name":"newOwner","type":"address","indexed":true,"internalType":"address"}],"anonymous":false},{"type":"event","name":"PriceFeedUpdated","inputs":[{"name":"oldFeed","type":"address","indexed":true,"internalType":"address"},{"name":"newFeed","type":"address","indexed":true,"internalType":"address"}],"anonymous":false},{"type":"event","name":"RebalancerUpdated","inputs":[{"name":"oldRebalancer","type":"address","indexed":true,"internalType":"address"},{"name":"newRebalancer","type":"address","indexed":true,"internalType":"address"}],"anonymous":false},{"type":"event","name":"Redeem","inputs":[{"name":"user","type":"address","indexed":true,"internalType":"address"},{"name":"agixBurned","type":"uint256","indexed":false,"internalType":"uint256"},{"name":"usdValue","type":"uint256","indexed":false,"internalType":"uint256"}],"anonymous":false},{"type":"event","name":"RedemptionsPaused","inputs":[{"name":"paused","type":"bool","indexed":false,"internalType":"bool"}],"anonymous":false},{"type":"error","name":"ArrayLengthMismatch","inputs":[]},{"type":"error","name":"BelowMinimumDeposit","inputs":[]},{"type":"error","name":"DepositsPausedError","inputs":[]},{"type":"error","name":"InvalidWeight","inputs":[]},{"type":"error","name":"OnlyRebalancer","inputs":[]},{"type":"error","name":"OwnableInvalidOwner","inputs":[{"name":"owner","type":"address","internalType":"address"}]},{"type":"error","name":"OwnableUnauthorizedAccount","inputs":[{"name":"account","type":"address","internalType":"address"}]},{"type":"error","name":"RedemptionsPausedError","inputs":[]},{"type":"error","name":"ReentrancyGuardReentrantCall","inputs":[]},{"type":"error","name":"SafeERC20FailedOperation","inputs":[{"name":"token","type":"address","internalType":"address"}]},{"type":"error","name":"TokenAlreadyInBasket","inputs":[]},{"type":"error","name":"TokenNotInBasket","inputs":[]},{"type":"error","name":"WeightsMismatch","inputs":[]},{"type":"error","name":"ZeroAddress","inputs":[]},{"type":"error","name":"ZeroAmount","inputs":[]}],"bytecode":{"object":"0x60a0604052678ac7230489e800006007553480156200001c575f80fd5b506040516200204e3803806200204e8339810160408190526200003f9162000166565b33806200006557604051631e4fbdf760e01b81525f600482015260240160405180910390fd5b6200007081620000fb565b5060017f9b779b17422d0df92223018b32b4d1fa46e071723d6817e2486d003becc55f00556001600160a01b0382161580620000b357506001600160a01b038116155b15620000d25760405163d92e233d60e01b815260040160405180910390fd5b6001600160a01b03918216608052600180546001600160a01b031916919092161790556200019c565b5f80546001600160a01b038381166001600160a01b0319831681178455604051919092169283917f8be0079c531659141344cd1fd0a4f28419497f9722a3daafe3b4186f6b6457e09190a35050565b80516001600160a01b038116811462000161575f80fd5b919050565b5f806040838503121562000178575f80fd5b62000183836200014a565b915062000193602084016200014a565b90509250929050565b608051611e76620001d85f395f818161023301528181610e7901528181610f45015281816110fb0152818161121301526115220152611e765ff3fe608060405234801561000f575f80fd5b50600436106101bb575f3560e01c806360da3e83116100f35780638ee573ac11610093578063bc97c95e1161006e578063bc97c95e146103af578063db006a75146103ce578063e593f8d2146103ee578063f2fde38b14610403575f80fd5b80638ee573ac1461036457806395082d2514610398578063abd894b0146103a7575f80fd5b8063724e78da116100ce578063724e78da1461031b57806373b693211461032e578063741bef1a146103415780638da5cb5b14610354575f80fd5b806360da3e83146102f35780636cfd155314610300578063715018a614610313575f80fd5b8063249d39e91161015e5780633d97457d116101395780633d97457d146102b257806344a7e5c8146102c5578063482d980c146102d8578063598b8e71146102e0575f80fd5b8063249d39e91461027f57806324f2fe24146102885780633552c62f146102aa575f80fd5b80631a6e6586116101995780631a6e6586146102175780631b97c00f1461022e5780631c481e2d1461025557806322acb86714610268575f80fd5b806301d22ccd146101bf5780630da254b4146101ef5780630db189b414610204575b5f80fd5b6002546101d2906001600160a01b031681565b6040516001600160a01b0390911681526020015b60405180910390f35b6102026101fd366004611978565b610416565b005b6102026102123660046119e6565b610472565b61022060075481565b6040519081526020016101e6565b6101d27f000000000000000000000000000000000000000000000000000000000000000081565b610202610263366004611978565b610786565b6102706107cf565b6040516101e693929190611abf565b61022061271081565b60065461029a90610100900460ff1681565b60405190151581526020016101e6565b610220610aa7565b6102026102c0366004611b17565b610c16565b6101d26102d3366004611b50565b610c5a565b600354610220565b6102206102ee366004611b67565b610c82565b60065461029a9060ff1681565b61020261030e366004611ba6565b610ffe565b610202611057565b610202610329366004611ba6565b61106a565b61020261033c366004611b50565b6110ea565b6001546101d2906001600160a01b031681565b5f546001600160a01b03166101d2565b610386610372366004611ba6565b60056020525f908152604090205460ff1681565b60405160ff90911681526020016101e6565b610220670de0b6b3a764000081565b6102206110f7565b6102206103bd366004611ba6565b60046020525f908152604090205481565b6103e16103dc366004611b50565b6111bd565b6040516101e69190611bbf565b6103f66115d9565b6040516101e69190611bd1565b610202610411366004611ba6565b611639565b61041e61167b565b600680548215156101000261ff00199091161790556040517f115ad0fece58825ec20640903934fbedfb746157e6d93b35ddc249fb9c82330b9061046790831515815260200190565b60405180910390a150565b61047a61167b565b82811461049a5760405163512509d360e11b815260040160405180910390fd5b5f5b6003548110156104e85760045f600383815481106104bc576104bc611be3565b5f9182526020808320909101546001600160a01b0316835282019290925260400181205560010161049c565b506104f460035f61194e565b5f805b8481101561071f575f86868381811061051257610512611be3565b90506020020160208101906105279190611ba6565b6001600160a01b03160361054e5760405163d92e233d60e01b815260040160405180910390fd5b5f60045f88888581811061056457610564611be3565b90506020020160208101906105799190611ba6565b6001600160a01b03166001600160a01b031681526020019081526020015f205411156105b8576040516329898d8760e01b815260040160405180910390fd5b60038686838181106105cc576105cc611be3565b90506020020160208101906105e19190611ba6565b81546001810183555f928352602090922090910180546001600160a01b0319166001600160a01b0390921691909117905583838281811061062457610624611be3565b9050602002013560045f88888581811061064057610640611be3565b90506020020160208101906106559190611ba6565b6001600160a01b0316815260208101919091526040015f205561069d86868381811061068357610683611be3565b90506020020160208101906106989190611ba6565b6116a7565b60055f8888858181106106b2576106b2611be3565b90506020020160208101906106c79190611ba6565b6001600160a01b0316815260208101919091526040015f20805460ff191660ff9290921691909117905583838281811061070357610703611be3565b90506020020135826107159190611c0b565b91506001016104f7565b5061271081146107425760405163585b926360e01b815260040160405180910390fd5b7fbfd880dff0c2337c52aed21b5d8e6792fe43d28f6767668c4c8c9fd72add4cfc858585856040516107779493929190611c1e565b60405180910390a15050505050565b61078e61167b565b6006805460ff19168215159081179091556040519081527f5ef34f53269a04b5b817e5be24a51ba6b477118b399ec9dd5b2baf5b299563dc90602001610467565b6060806060600380548060200260200160405190810160405280929190818152602001828054801561082857602002820191905f5260205f20905b81546001600160a01b0316815260019091019060200180831161080a575b5050600354939650505067ffffffffffffffff821115905061084c5761084c611c98565b604051908082528060200260200182016040528015610875578160200160208202803683370190505b5060035490925067ffffffffffffffff81111561089457610894611c98565b6040519080825280602002602001820160405280156108bd578160200160208202803683370190505b5090505f6108c9610aa7565b90505f5b600354811015610aa0575f600382815481106108eb576108eb611be3565b5f9182526020808320909101546001600160a01b0316808352600490915260409091205485519192509085908490811061092757610927611be3565b60209081029190910101528215610a97576040516370a0823160e01b81523060048201525f906001600160a01b038316906370a0823190602401602060405180830381865afa15801561097c573d5f803e3d5ffd5b505050506040513d601f19601f820116820180604052508101906109a09190611cac565b6001546040516341976e0960e01b81526001600160a01b0385811660048301529293505f92909116906341976e0990602401602060405180830381865afa1580156109ed573d5f803e3d5ffd5b505050506040513d601f19601f82011682018060405250810190610a119190611cac565b6001600160a01b0384165f9081526005602052604081205491925090610a3b90849060ff1661170e565b90505f670de0b6b3a7640000610a518484611cc3565b610a5b9190611cda565b905086610a6a61271083611cc3565b610a749190611cda565b898781518110610a8657610a86611be3565b602002602001018181525050505050505b506001016108cd565b5050909192565b5f805b600354811015610c12575f60038281548110610ac857610ac8611be3565b5f9182526020822001546040516370a0823160e01b81523060048201526001600160a01b03909116925082906370a0823190602401602060405180830381865afa158015610b18573d5f803e3d5ffd5b505050506040513d601f19601f82011682018060405250810190610b3c9190611cac565b90508015610c08576001546040516341976e0960e01b81526001600160a01b0384811660048301525f9216906341976e0990602401602060405180830381865afa158015610b8c573d5f803e3d5ffd5b505050506040513d601f19601f82011682018060405250810190610bb09190611cac565b6001600160a01b0384165f9081526005602052604081205491925090610bda90849060ff1661170e565b9050670de0b6b3a7640000610bef8383611cc3565b610bf99190611cda565b610c039087611c0b565b955050505b5050600101610aaa565b5090565b6002546001600160a01b03163314610c41576040516309478a2f60e31b815260040160405180910390fd5b610c556001600160a01b0384168383611775565b505050565b60038181548110610c69575f80fd5b5f918252602090912001546001600160a01b0316905081565b5f610c8b6117aa565b60065460ff1615610cae57604051627cfe7f60e31b815260040160405180910390fd5b6003548214610cd05760405163512509d360e11b815260040160405180910390fd5b5f805b600354811015610e4757848482818110610cef57610cef611be3565b905060200201355f0315610e3f575f60038281548110610d1157610d11611be3565b5f918252602090912001546001600160a01b03169050610d5f3330888886818110610d3e57610d3e611be3565b90506020020135846001600160a01b03166117c5909392919063ffffffff16565b6001546040516341976e0960e01b81526001600160a01b0383811660048301525f9216906341976e0990602401602060405180830381865afa158015610da7573d5f803e3d5ffd5b505050506040513d601f19601f82011682018060405250810190610dcb9190611cac565b90505f610e10888886818110610de357610de3611be3565b6001600160a01b0387165f90815260056020908152604090912054910292909201359160ff16905061170e565b9050670de0b6b3a7640000610e258383611cc3565b610e2f9190611cda565b610e399086611c0b565b94505050505b600101610cd3565b50600754811015610e6b57604051632ddf431160e11b815260040160405180910390fd5b5f610e74610aa7565b90505f7f00000000000000000000000000000000000000000000000000000000000000006001600160a01b03166318160ddd6040518163ffffffff1660e01b8152600401602060405180830381865afa158015610ed3573d5f803e3d5ffd5b505050506040513d601f19601f82011682018060405250810190610ef79190611cac565b9050801580610f04575081155b15610f1157829350610f29565b81610f1c8285611cc3565b610f269190611cda565b93505b6040516340c10f1960e01b8152336004820152602481018590527f00000000000000000000000000000000000000000000000000000000000000006001600160a01b0316906340c10f19906044015f604051808303815f87803b158015610f8e575f80fd5b505af1158015610fa0573d5f803e3d5ffd5b505060408051878152602081018790523393507f90890809c654f11d6e72a28fa60149770a0d11ec6c92319d6ceb2bb0a4ea1a1592500160405180910390a2505050610ff860015f80516020611e2183398151915255565b92915050565b61100661167b565b600280546001600160a01b038381166001600160a01b0319831681179093556040519116919082907fdaac33c9824c151488e79746a58b1b846dd797ac4b96a3a42efce76744fb109f905f90a35050565b61105f61167b565b6110685f611801565b565b61107261167b565b6001600160a01b0381166110995760405163d92e233d60e01b815260040160405180910390fd5b600180546001600160a01b038381166001600160a01b0319831681179093556040519116919082907fa8abe0398416476db5b05737cd4da3b3cbde5012d978a6a6c3fd49d321753536905f90a35050565b6110f261167b565b600755565b5f807f00000000000000000000000000000000000000000000000000000000000000006001600160a01b03166318160ddd6040518163ffffffff1660e01b8152600401602060405180830381865afa158015611155573d5f803e3d5ffd5b505050506040513d601f19601f820116820180604052508101906111799190611cac565b9050805f0361119157670de0b6b3a764000091505090565b80670de0b6b3a76400006111a3610aa7565b6111ad9190611cc3565b6111b79190611cda565b91505090565b60606111c76117aa565b600654610100900460ff16156111f057604051634f4a0c2b60e11b815260040160405180910390fd5b815f0361121057604051631f2a200560e01b815260040160405180910390fd5b5f7f00000000000000000000000000000000000000000000000000000000000000006001600160a01b03166318160ddd6040518163ffffffff1660e01b8152600401602060405180830381865afa15801561126d573d5f803e3d5ffd5b505050506040513d601f19601f820116820180604052508101906112919190611cac565b9050805f036112b357604051631f2a200560e01b815260040160405180910390fd5b60035467ffffffffffffffff8111156112ce576112ce611c98565b6040519080825280602002602001820160405280156112f7578160200160208202803683370190505b5091505f805b600354811015611505575f6003828154811061131b5761131b611be3565b5f9182526020822001546040516370a0823160e01b81523060048201526001600160a01b03909116925082906370a0823190602401602060405180830381865afa15801561136b573d5f803e3d5ffd5b505050506040513d601f19601f8201168201806040525081019061138f9190611cac565b90508461139c8883611cc3565b6113a69190611cda565b8684815181106113b8576113b8611be3565b6020026020010181815250505f8684815181106113d7576113d7611be3565b602002602001015111156114fb5761141c338785815181106113fb576113fb611be3565b6020026020010151846001600160a01b03166117759092919063ffffffff16565b6001546040516341976e0960e01b81526001600160a01b0384811660048301525f9216906341976e0990602401602060405180830381865afa158015611464573d5f803e3d5ffd5b505050506040513d601f19601f820116820180604052508101906114889190611cac565b90505f6114cd8886815181106114a0576114a0611be3565b6020908102919091018101516001600160a01b0387165f908152600590925260409091205460ff1661170e565b9050670de0b6b3a76400006114e28383611cc3565b6114ec9190611cda565b6114f69087611c0b565b955050505b50506001016112fd565b5060405163079cc67960e41b8152336004820152602481018590527f00000000000000000000000000000000000000000000000000000000000000006001600160a01b0316906379cc6790906044015f604051808303815f87803b15801561156b575f80fd5b505af115801561157d573d5f803e3d5ffd5b505060408051878152602081018590523393507fe5b754fb1abb7f01b499791d0b820ae3b6af3424ac1c59768edb53f4ec31a92992500160405180910390a250506115d460015f80516020611e2183398151915255565b919050565b6060600380548060200260200160405190810160405280929190818152602001828054801561162f57602002820191905f5260205f20905b81546001600160a01b03168152600190910190602001808311611611575b5050505050905090565b61164161167b565b6001600160a01b03811661166f57604051631e4fbdf760e01b81525f60048201526024015b60405180910390fd5b61167881611801565b50565b5f546001600160a01b031633146110685760405163118cdaa760e01b8152336004820152602401611666565b5f816001600160a01b031663313ce5676040518163ffffffff1660e01b8152600401602060405180830381865afa925050508015611702575060408051601f3d908101601f191682019092526116ff91810190611cf9565b60015b610ff857506012919050565b5f60128260ff16101561174257611726826012611d19565b61173190600a611e12565b61173b9084611cc3565b9050610ff8565b60128260ff16111561176e57611759601283611d19565b61176490600a611e12565b61173b9084611cda565b5090919050565b6117828383836001611850565b610c5557604051635274afe760e01b81526001600160a01b0384166004820152602401611666565b6117b26118b2565b60025f80516020611e2183398151915255565b6117d38484848460016118e1565b6117fb57604051635274afe760e01b81526001600160a01b0385166004820152602401611666565b50505050565b5f80546001600160a01b038381166001600160a01b0319831681178455604051919092169283917f8be0079c531659141344cd1fd0a4f28419497f9722a3daafe3b4186f6b6457e09190a35050565b60405163a9059cbb60e01b5f8181526001600160a01b038616600452602485905291602083604481808b5af1925060015f511483166118a657838315161561189a573d5f823e3d81fd5b5f873b113d1516831692505b60405250949350505050565b5f80516020611e218339815191525460020361106857604051633ee5aeb560e01b815260040160405180910390fd5b6040516323b872dd60e01b5f8181526001600160a01b038781166004528616602452604485905291602083606481808c5af1925060015f5114831661193d578383151615611931573d5f823e3d81fd5b5f883b113d1516831692505b604052505f60605295945050505050565b5080545f8255905f5260205f209081019061167891905b80821115610c12575f8155600101611965565b5f60208284031215611988575f80fd5b81358015158114611997575f80fd5b9392505050565b5f8083601f8401126119ae575f80fd5b50813567ffffffffffffffff8111156119c5575f80fd5b6020830191508360208260051b85010111156119df575f80fd5b9250929050565b5f805f80604085870312156119f9575f80fd5b843567ffffffffffffffff80821115611a10575f80fd5b611a1c8883890161199e565b90965094506020870135915080821115611a34575f80fd5b50611a418782880161199e565b95989497509550505050565b5f815180845260208085019450602084015f5b83811015611a855781516001600160a01b031687529582019590820190600101611a60565b509495945050505050565b5f815180845260208085019450602084015f5b83811015611a8557815187529582019590820190600101611aa3565b606081525f611ad16060830186611a4d565b8281036020840152611ae38186611a90565b90508281036040840152611af78185611a90565b9695505050505050565b80356001600160a01b03811681146115d4575f80fd5b5f805f60608486031215611b29575f80fd5b611b3284611b01565b9250611b4060208501611b01565b9150604084013590509250925092565b5f60208284031215611b60575f80fd5b5035919050565b5f8060208385031215611b78575f80fd5b823567ffffffffffffffff811115611b8e575f80fd5b611b9a8582860161199e565b90969095509350505050565b5f60208284031215611bb6575f80fd5b61199782611b01565b602081525f6119976020830184611a90565b602081525f6119976020830184611a4d565b634e487b7160e01b5f52603260045260245ffd5b634e487b7160e01b5f52601160045260245ffd5b80820180821115610ff857610ff8611bf7565b604080825281018490525f8560608301825b87811015611c5e576001600160a01b03611c4984611b01565b16825260209283019290910190600101611c30565b5083810360208501528481526001600160fb1b03851115611c7d575f80fd5b8460051b915081866020830137016020019695505050505050565b634e487b7160e01b5f52604160045260245ffd5b5f60208284031215611cbc575f80fd5b5051919050565b8082028115828204841417610ff857610ff8611bf7565b5f82611cf457634e487b7160e01b5f52601260045260245ffd5b500490565b5f60208284031215611d09575f80fd5b815160ff81168114611997575f80fd5b60ff8281168282160390811115610ff857610ff8611bf7565b600181815b80851115611d6c57815f1904821115611d5257611d52611bf7565b80851615611d5f57918102915b93841c9390800290611d37565b509250929050565b5f82611d8257506001610ff8565b81611d8e57505f610ff8565b8160018114611da45760028114611dae57611dca565b6001915050610ff8565b60ff841115611dbf57611dbf611bf7565b50506001821b610ff8565b5060208310610133831016604e8410600b8410161715611ded575081810a610ff8565b611df78383611d32565b805f1904821115611e0a57611e0a611bf7565b029392505050565b5f61199760ff841683611d7456fe9b779b17422d0df92223018b32b4d1fa46e071723d6817e2486d003becc55f00a2646970667358221220b4faf48240fc9e213ede8a372acf22a19b43823b6921482fff5f9714b73ce5cc64736f6c63430008180033","linkReferences":{}},"methodIdentifiers":{"BPS()":"249d39e9","PRICE_PRECISION()":"95082d25","agix()":"1b97c00f","basketTokens(uint256)":"44a7e5c8","deposit(uint256[])":"598b8e71","depositsPaused()":"60da3e83","getBasketLength()":"482d980c","getBasketTokens()":"e593f8d2","getNav()":"3552c62f","getNavPerShare()":"abd894b0","getWeights()":"22acb867","minDepositUsd()":"1a6e6586","owner()":"8da5cb5b","priceFeed()":"741bef1a","rebalancer()":"01d22ccd","redeem(uint256)":"db006a75","redemptionsPaused()":"24f2fe24","renounceOwnership()":"715018a6","setBasket(address[],uint256[])":"0db189b4","setDepositsPaused(bool)":"1c481e2d","setMinDepositUsd(uint256)":"73b69321","setPriceFeed(address)":"724e78da","setRebalancer(address)":"6cfd1553","setRedemptionsPaused(bool)":"0da254b4","targetWeights(address)":"bc97c95e","tokenDecimals(address)":"8ee573ac","transferForRebalance(address,address,uint256)":"3d97457d","transferOwnership(address)":"f2fde38b"},"id":38}