{"abi":[{"type":"function","name":"computeExtendedLeaf","inputs":[{"name":"token","type":"address","internalType":"address"},{"name":"weight","type":"uint256","internalType":"uint256"},{"name":"tier","type":"uint8","internalType":"uint8"},{"name":"rank","type":"uint16","internalType":"uint16"}],"outputs":[{"name":"","type":"bytes32","internalType":"bytes32"}],"stateMutability":"pure"},{"type":"function","name":"computeLeaf","inputs":[{"name":"token","type":"address","internalType":"address"},{"name":"weight","type":"uint256","internalType":"uint256"}],"outputs":[{"name":"","type":"bytes32","internalType":"bytes32"}],"stateMutability":"pure"},{"type":"function","name":"hashPair","inputs":[{"name":"a","type":"bytes32","internalType":"bytes32"},{"name":"b","type":"bytes32","internalType":"bytes32"}],"outputs":[{"name":"","type":"bytes32","internalType":"bytes32"}],"stateMutability":"pure"},{"type":"function","name":"processProof","inputs":[{"name":"proof","type":"bytes32[]","internalType":"bytes32[]"},{"name":"leaf","type":"bytes32","internalType":"bytes32"}],"outputs":[{"name":"","type":"bytes32","internalType":"bytes32"}],"stateMutability":"pure"},{"type":"function","name":"verify","inputs":[{"name":"root","type":"bytes32","internalType":"bytes32"},{"name":"token","type":"address","internalType":"address"},{"name":"weight","type":"uint256","internalType":"uint256"},{"name":"proof","type":"bytes32[]","internalType":"bytes32[]"}],"outputs":[{"name":"","type":"bool","internalType":"bool"}],"stateMutability":"pure"},{"type":"function","name":"verifyBatch","inputs":[{"name":"root","type":"bytes32","internalType":"bytes32"},{"name":"tokens","type":"address[]","internalType":"address[]"},{"name":"weights","type":"uint256[]","internalType":"uint256[]"},{"name":"proofs","type":"bytes32[][]","internalType":"bytes32[][]"}],"outputs":[{"name":"","type":"bool","internalType":"bool"}],"stateMutability":"pure"},{"type":"function","name":"verifyExtended","inputs":[{"name":"root","type":"bytes32","internalType":"bytes32"},{"name":"token","type":"address","internalType":"address"},{"name":"weight","type":"uint256","internalType":"uint256"},{"name":"tier","type":"uint8","internalType":"uint8"},{"name":"rank","type":"uint16","internalType":"uint16"},{"name":"proof","type":"bytes32[]","internalType":"bytes32[]"}],"outputs":[{"name":"","type":"bool","internalType":"bool"}],"stateMutability":"pure"}],"bytecode":{"object":"0x608060405234801561000f575f80fd5b5061081c8061001d5f395ff3fe608060405234801561000f575f80fd5b506004361061007a575f3560e01c80635dc2003e116100585780635dc2003e146100da57806362702a6b146100ed5780636df0504414610100578063c946086b14610113575f80fd5b806327a98ced1461007e5780633695a940146100a65780633d910397146100c7575b5f80fd5b61009161008c3660046104ee565b610126565b60405190151581526020015b60405180910390f35b6100b96100b436600461058a565b610144565b60405190815260200161009d565b6100916100d53660046105e6565b610156565b6100b96100e8366004610656565b610166565b6100b96100fb3660046106a0565b61017c565b6100b961010e3660046106e8565b610190565b610091610121366004610710565b61019b565b5f610136888888888888886101b3565b90505b979650505050505050565b5f61014f83836102d6565b9392505050565b5f61013688888888888888610340565b5f6101738585858561036a565b95945050505050565b5f6101888484846103f7565b949350505050565b5f61014f8383610436565b5f6101a98686868686610480565b9695505050505050565b5f8584146101fa5760405162461bcd60e51b815260206004820152600f60248201526e098cadccee8d040dad2e6dac2e8c6d608b1b60448201526064015b60405180910390fd5b85821461023b5760405162461bcd60e51b815260206004820152600f60248201526e098cadccee8d040dad2e6dac2e8c6d608b1b60448201526064016101f1565b5f5b868110156102c7576102b28989898481811061025b5761025b610773565b90506020020160208101906102709190610787565b88888581811061028257610282610773565b9050602002013587878681811061029b5761029b610773565b90506020028101906102ad91906107a0565b610480565b6102bf575f915050610139565b60010161023d565b50600198975050505050505050565b5f81831061030d5760408051602081018490529081018490526060016040516020818303038152906040528051906020012061014f565b60408051602081018590529081018390526060015b60405160208183030381529060405280519060200120905092915050565b5f8061034e8888888861036a565b90508861035c8585846103f7565b149998505050505050505050565b6040516bffffffffffffffffffffffff19606086901b166020820152603481018490526001600160f81b031960f884901b1660548201526001600160f01b031960f083901b1660558201525f9060570160408051601f1981840301815282825280516020918201209083015201604051602081830303815290604052805190602001209050949350505050565b805f5b8381101561042e576104248286868481811061041857610418610773565b905060200201356102d6565b91506001016103fa565b509392505050565b6040516bffffffffffffffffffffffff19606084901b166020820152603481018290525f9060540160408051601f1981840301815282825280516020918201209083015201610322565b5f8061048c8686610436565b90508661049a8585846103f7565b14979650505050505050565b5f8083601f8401126104b6575f80fd5b50813567ffffffffffffffff8111156104cd575f80fd5b6020830191508360208260051b85010111156104e7575f80fd5b9250929050565b5f805f805f805f6080888a031215610504575f80fd5b87359650602088013567ffffffffffffffff80821115610522575f80fd5b61052e8b838c016104a6565b909850965060408a0135915080821115610546575f80fd5b6105528b838c016104a6565b909650945060608a013591508082111561056a575f80fd5b506105778a828b016104a6565b989b979a50959850939692959293505050565b5f806040838503121561059b575f80fd5b50508035926020909101359150565b80356001600160a01b03811681146105c0575f80fd5b919050565b803560ff811681146105c0575f80fd5b803561ffff811681146105c0575f80fd5b5f805f805f805f60c0888a0312156105fc575f80fd5b8735965061060c602089016105aa565b955060408801359450610621606089016105c5565b935061062f608089016105d5565b925060a088013567ffffffffffffffff81111561064a575f80fd5b6105778a828b016104a6565b5f805f8060808587031215610669575f80fd5b610672856105aa565b935060208501359250610687604086016105c5565b9150610695606086016105d5565b905092959194509250565b5f805f604084860312156106b2575f80fd5b833567ffffffffffffffff8111156106c8575f80fd5b6106d4868287016104a6565b909790965060209590950135949350505050565b5f80604083850312156106f9575f80fd5b610702836105aa565b946020939093013593505050565b5f805f805f60808688031215610724575f80fd5b85359450610734602087016105aa565b935060408601359250606086013567ffffffffffffffff811115610756575f80fd5b610762888289016104a6565b969995985093965092949392505050565b634e487b7160e01b5f52603260045260245ffd5b5f60208284031215610797575f80fd5b61014f826105aa565b5f808335601e198436030181126107b5575f80fd5b83018035915067ffffffffffffffff8211156107cf575f80fd5b6020019150600581901b36038213156104e7575f80fdfea2646970667358221220e32bc448cd25470c20510bb446c17d51f8d0789efd32d671e1e55e4a7b88d1b364736f6c63430008180033","linkReferences":{}},"methodIdentifiers":{"computeExtendedLeaf(address,uint256,uint8,uint16)":"5dc2003e","computeLeaf(address,uint256)":"6df05044","hashPair(bytes32,bytes32)":"3695a940","processProof(bytes32[],bytes32)":"62702a6b","verify(bytes32,address,uint256,bytes32[])":"c946086b","verifyBatch(bytes32,address[],uint256[],bytes32[][])":"27a98ced","verifyExtended(bytes32,address,uint256,uint8,uint16,bytes32[])":"3d910397"},"id":42}