{"abi":[{"type":"constructor","inputs":[{"name":"_vault","type":"address","internalType":"address"},{"name":"_priceFeed","type":"address","internalType":"address"},{"name":"_swapRouter","type":"address","internalType":"address"},{"name":"_weth","type":"address","internalType":"address"}],"stateMutability":"nonpayable"},{"type":"function","name":"BPS","inputs":[],"outputs":[{"name":"","type":"uint256","internalType":"uint256"}],"stateMutability":"view"},{"type":"function","name":"checkRebalanceNeeded","inputs":[],"outputs":[{"name":"needed","type":"bool","internalType":"bool"},{"name":"maxDrift","type":"uint256","internalType":"uint256"}],"stateMutability":"view"},{"type":"function","name":"defaultPoolFee","inputs":[],"outputs":[{"name":"","type":"uint24","internalType":"uint24"}],"stateMutability":"view"},{"type":"function","name":"driftThresholdBps","inputs":[],"outputs":[{"name":"","type":"uint256","internalType":"uint256"}],"stateMutability":"view"},{"type":"function","name":"executeRebalance","inputs":[],"outputs":[],"stateMutability":"nonpayable"},{"type":"function","name":"keepers","inputs":[{"name":"","type":"address","internalType":"address"}],"outputs":[{"name":"","type":"bool","internalType":"bool"}],"stateMutability":"view"},{"type":"function","name":"lastRebalanceTime","inputs":[],"outputs":[{"name":"","type":"uint256","internalType":"uint256"}],"stateMutability":"view"},{"type":"function","name":"manualSwap","inputs":[{"name":"tokenIn","type":"address","internalType":"address"},{"name":"tokenOut","type":"address","internalType":"address"},{"name":"amountIn","type":"uint256","internalType":"uint256"},{"name":"minAmountOut","type":"uint256","internalType":"uint256"}],"outputs":[{"name":"amountOut","type":"uint256","internalType":"uint256"}],"stateMutability":"nonpayable"},{"type":"function","name":"maxSlippageBps","inputs":[],"outputs":[{"name":"","type":"uint256","internalType":"uint256"}],"stateMutability":"view"},{"type":"function","name":"minRebalanceInterval","inputs":[],"outputs":[{"name":"","type":"uint256","internalType":"uint256"}],"stateMutability":"view"},{"type":"function","name":"owner","inputs":[],"outputs":[{"name":"","type":"address","internalType":"address"}],"stateMutability":"view"},{"type":"function","name":"paused","inputs":[],"outputs":[{"name":"","type":"bool","internalType":"bool"}],"stateMutability":"view"},{"type":"function","name":"poolFees","inputs":[{"name":"","type":"address","internalType":"address"}],"outputs":[{"name":"","type":"uint24","internalType":"uint24"}],"stateMutability":"view"},{"type":"function","name":"priceFeed","inputs":[],"outputs":[{"name":"","type":"address","internalType":"contract IPriceFeed"}],"stateMutability":"view"},{"type":"function","name":"renounceOwnership","inputs":[],"outputs":[],"stateMutability":"nonpayable"},{"type":"function","name":"setDriftThreshold","inputs":[{"name":"_thresholdBps","type":"uint256","internalType":"uint256"}],"outputs":[],"stateMutability":"nonpayable"},{"type":"function","name":"setKeeper","inputs":[{"name":"keeper","type":"address","internalType":"address"},{"name":"allowed","type":"bool","internalType":"bool"}],"outputs":[],"stateMutability":"nonpayable"},{"type":"function","name":"setMaxSlippage","inputs":[{"name":"_slippageBps","type":"uint256","internalType":"uint256"}],"outputs":[],"stateMutability":"nonpayable"},{"type":"function","name":"setMinRebalanceInterval","inputs":[{"name":"_interval","type":"uint256","internalType":"uint256"}],"outputs":[],"stateMutability":"nonpayable"},{"type":"function","name":"setPaused","inputs":[{"name":"_paused","type":"bool","internalType":"bool"}],"outputs":[],"stateMutability":"nonpayable"},{"type":"function","name":"setPoolFee","inputs":[{"name":"token","type":"address","internalType":"address"},{"name":"fee","type":"uint24","internalType":"uint24"}],"outputs":[],"stateMutability":"nonpayable"},{"type":"function","name":"setSwapRouter","inputs":[{"name":"_swapRouter","type":"address","internalType":"address"}],"outputs":[],"stateMutability":"nonpayable"},{"type":"function","name":"swapRouter","inputs":[],"outputs":[{"name":"","type":"address","internalType":"contract ISwapRouter"}],"stateMutability":"view"},{"type":"function","name":"transferOwnership","inputs":[{"name":"newOwner","type":"address","internalType":"address"}],"outputs":[],"stateMutability":"nonpayable"},{"type":"function","name":"vault","inputs":[],"outputs":[{"name":"","type":"address","internalType":"contract IndexVault"}],"stateMutability":"view"},{"type":"function","name":"weth","inputs":[],"outputs":[{"name":"","type":"address","internalType":"address"}],"stateMutability":"view"},{"type":"event","name":"DriftThresholdUpdated","inputs":[{"name":"oldThreshold","type":"uint256","indexed":false,"internalType":"uint256"},{"name":"newThreshold","type":"uint256","indexed":false,"internalType":"uint256"}],"anonymous":false},{"type":"event","name":"KeeperUpdated","inputs":[{"name":"keeper","type":"address","indexed":true,"internalType":"address"},{"name":"allowed","type":"bool","indexed":false,"internalType":"bool"}],"anonymous":false},{"type":"event","name":"MaxSlippageUpdated","inputs":[{"name":"oldSlippage","type":"uint256","indexed":false,"internalType":"uint256"},{"name":"newSlippage","type":"uint256","indexed":false,"internalType":"uint256"}],"anonymous":false},{"type":"event","name":"OwnershipTransferred","inputs":[{"name":"previousOwner","type":"address","indexed":true,"internalType":"address"},{"name":"newOwner","type":"address","indexed":true,"internalType":"address"}],"anonymous":false},{"type":"event","name":"Paused","inputs":[{"name":"isPaused","type":"bool","indexed":false,"internalType":"bool"}],"anonymous":false},{"type":"event","name":"Rebalanced","inputs":[{"name":"timestamp","type":"uint256","indexed":false,"internalType":"uint256"},{"name":"totalSwaps","type":"uint256","indexed":false,"internalType":"uint256"},{"name":"totalValueSwapped","type":"uint256","indexed":false,"internalType":"uint256"}],"anonymous":false},{"type":"event","name":"SwapExecuted","inputs":[{"name":"tokenIn","type":"address","indexed":true,"internalType":"address"},{"name":"tokenOut","type":"address","indexed":true,"internalType":"address"},{"name":"amountIn","type":"uint256","indexed":false,"internalType":"uint256"},{"name":"amountOut","type":"uint256","indexed":false,"internalType":"uint256"}],"anonymous":false},{"type":"event","name":"SwapRouterUpdated","inputs":[{"name":"oldRouter","type":"address","indexed":true,"internalType":"address"},{"name":"newRouter","type":"address","indexed":true,"internalType":"address"}],"anonymous":false},{"type":"error","name":"NoRebalanceNeeded","inputs":[]},{"type":"error","name":"NotKeeper","inputs":[]},{"type":"error","name":"OwnableInvalidOwner","inputs":[{"name":"owner","type":"address","internalType":"address"}]},{"type":"error","name":"OwnableUnauthorizedAccount","inputs":[{"name":"account","type":"address","internalType":"address"}]},{"type":"error","name":"RebalancingPaused","inputs":[]},{"type":"error","name":"ReentrancyGuardReentrantCall","inputs":[]},{"type":"error","name":"SafeERC20FailedOperation","inputs":[{"name":"token","type":"address","internalType":"address"}]},{"type":"error","name":"SlippageExceeded","inputs":[]},{"type":"error","name":"SwapFailed","inputs":[]},{"type":"error","name":"TooSoon","inputs":[]},{"type":"error","name":"ZeroAddress","inputs":[]}],"bytecode":{"object":"0x60a060405260646001556101f46002556007805462ffffff1916610bb8179055610e10600a5534801562000031575f80fd5b5060405162001c3638038062001c368339810160408190526200005491620001b3565b33806200007a57604051631e4fbdf760e01b81525f600482015260240160405180910390fd5b620000858162000148565b5060017f9b779b17422d0df92223018b32b4d1fa46e071723d6817e2486d003becc55f00556001600160a01b0384161580620000c857506001600160a01b038316155b15620000e75760405163d92e233d60e01b815260040160405180910390fd5b6001600160a01b03938416608052600380549385166001600160a01b0319948516179055600480549285169284169290921790915560058054919093169116179055335f908152600860205260409020805460ff191660011790556200020d565b5f80546001600160a01b038381166001600160a01b0319831681178455604051919092169283917f8be0079c531659141344cd1fd0a4f28419497f9722a3daafe3b4186f6b6457e09190a35050565b80516001600160a01b0381168114620001ae575f80fd5b919050565b5f805f8060808587031215620001c7575f80fd5b620001d28562000197565b9350620001e26020860162000197565b9250620001f26040860162000197565b9150620002026060860162000197565b905092959194509250565b6080516119df620002575f395f818161039301528181610551015281816107f60152818161087f015281816109b901528181610ce1015281816111d201526112d601526119df5ff3fe608060405234801561000f575f80fd5b5060043610610187575f3560e01c8063715018a6116100d9578063c31c9c0711610093578063d9ca21d51161006e578063d9ca21d51461035f578063f0b20dcd14610368578063f2fde38b1461037b578063fbfa77cf1461038e575f80fd5b8063c31c9c0714610330578063c4aa739514610343578063d1b9e8531461034c575f80fd5b8063715018a6146102d0578063741bef1a146102d85780638bdc2981146102eb5780638da5cb5b146102f45780639bb71aef14610304578063be6e91611461030c575f80fd5b806343f68a49116101445780635fd4743a1161011f5780635fd4743a146102725780636c252eb2146102915780636d68da321461029a5780636f60a6dd146102ad575f80fd5b806343f68a491461023f5780634e18f760146102525780635c975abb14610265575f80fd5b806316c38b3c1461018b5780631cb42f06146101a0578063249d39e9146101c65780633bbd64bc146101cf5780633fc8cef314610201578063412736571461022c575b5f80fd5b61019e6101993660046114e0565b6103b5565b005b6101b36101ae366004611514565b610404565b6040519081526020015b60405180910390f35b6101b361271081565b6101f16101dd366004611557565b60086020525f908152604090205460ff1681565b60405190151581526020016101bd565b600554610214906001600160a01b031681565b6040516001600160a01b0390911681526020016101bd565b61019e61023a366004611557565b610497565b61019e61024d366004611572565b6104f0565b61019e610260366004611572565b61053d565b600b546101f19060ff1681565b61027a61054a565b6040805192151583526020830191909152016101bd565b6101b3600a5481565b61019e6102a8366004611572565b6106cb565b6007546102bc9062ffffff1681565b60405162ffffff90911681526020016101bd565b61019e610711565b600354610214906001600160a01b031681565b6101b360025481565b5f546001600160a01b0316610214565b61019e610724565b6102bc61031a366004611557565b60066020525f908152604090205462ffffff1681565b600454610214906001600160a01b031681565b6101b360015481565b61019e61035a366004611589565b610b22565b6101b360095481565b61019e6103763660046115bc565b610b88565b61019e610389366004611557565b610bc0565b6102147f000000000000000000000000000000000000000000000000000000000000000081565b6103bd610c02565b600b805460ff19168215159081179091556040519081527f0e2fb031ee032dc02d8011dc50b816eb450cf856abd8261680dac74f72165bd29060200160405180910390a150565b5f61040d610c02565b610415610c2e565b61042185858585610c49565b9050836001600160a01b0316856001600160a01b03167fdd36740e2a012d93061a0d99eaa9107860955de4e90027d3cf465a055026c4078584604051610471929190918252602082015260400190565b60405180910390a361048f60015f8051602061198a83398151915255565b949350505050565b61049f610c02565b600480546001600160a01b038381166001600160a01b0319831681179093556040519116919082907fca394f95d8dbf1e8b2e76b9a8da90cacce1da85181a65508dab13212dc1df53b905f90a35050565b6104f8610c02565b600180549082905560408051828152602081018490527ed0adba8f44b48a2e609f42b3a1c04404a6d5bf30c24d7501cc72dd2340695791015b60405180910390a15050565b610545610c02565b600a55565b5f805f805f7f00000000000000000000000000000000000000000000000000000000000000006001600160a01b03166322acb8676040518163ffffffff1660e01b81526004015f60405180830381865afa1580156105aa573d5f803e3d5ffd5b505050506040513d5f823e601f3d908101601f191682016040526105d191908101906116ce565b9250925092505f5b83518110156106c3575f8282815181106105f5576105f56117af565b602002602001015184838151811061060f5761060f6117af565b60200260200101511161065f5783828151811061062e5761062e6117af565b6020026020010151838381518110610648576106486117af565b602002602001015161065a91906117d7565b61069d565b828281518110610671576106716117af565b602002602001015184838151811061068b5761068b6117af565b602002602001015161069d91906117d7565b9050858111156106ab578095505b6002548111156106ba57600196505b506001016105d9565b505050509091565b6106d3610c02565b600280549082905560408051828152602081018490527f623b0f75d0215ac108d43974dc2839304aae3a313a0802254ffe0ecb69ad975d9101610531565b610719610c02565b6107225f610de9565b565b335f9081526008602052604090205460ff1615801561074d57505f546001600160a01b03163314155b1561076b57604051631ea2564f60e31b815260040160405180910390fd5b610773610c2e565b600b5460ff161561079757604051632a0872f960e21b815260040160405180910390fd5b600a546009546107a791906117ea565b4210156107c757604051636fed7d8560e01b815260040160405180910390fd5b5f6107d061054a565b509050806107f157604051636f73fdaf60e11b815260040160405180910390fd5b5f805f7f00000000000000000000000000000000000000000000000000000000000000006001600160a01b03166322acb8676040518163ffffffff1660e01b81526004015f60405180830381865afa15801561084f573d5f803e3d5ffd5b505050506040513d5f823e601f3d908101601f1916820160405261087691908101906116ce565b9250925092505f7f00000000000000000000000000000000000000000000000000000000000000006001600160a01b0316633552c62f6040518163ffffffff1660e01b8152600401602060405180830381865afa1580156108d9573d5f803e3d5ffd5b505050506040513d601f19601f820116820180604052508101906108fd91906117fd565b90505f805f5b865181101561099e575f80610965898481518110610923576109236117af565b602002602001015189858151811061093d5761093d6117af565b6020026020010151898681518110610957576109576117af565b602002602001015189610e38565b915091505f8211610976575f610979565b60015b6109869060ff16866117ea565b945061099281856117ea565b93505050600101610903565b506005546040516370a0823160e01b81526001600160a01b037f0000000000000000000000000000000000000000000000000000000000000000811660048301525f9216906370a0823190602401602060405180830381865afa158015610a07573d5f803e3d5ffd5b505050506040513d601f19601f82011682018060405250810190610a2b91906117fd565b90505f5b8751811015610abd575f610a91898381518110610a4e57610a4e6117af565b6020026020010151898481518110610a6857610a686117af565b6020026020010151898581518110610a8257610a826117af565b60200260200101518987610f96565b90508015610ab45784610aa381611814565b9550610ab1905081846117d7565b92505b50600101610a2f565b50426009819055604080519182526020820185905281018390527f83387a3342ff1ebc5e437dc9ae0f98274afda12a11cf547eebec05a3e0b8f8a79060600160405180910390a1505050505050505061072260015f8051602061198a83398151915255565b610b2a610c02565b6001600160a01b0382165f81815260086020908152604091829020805460ff191685151590811790915591519182527f786c9db967bf0c6b16c7c91adae8a8c554b15a57d373fa2059607300f4616c00910160405180910390a25050565b610b90610c02565b6001600160a01b03919091165f908152600660205260409020805462ffffff191662ffffff909216919091179055565b610bc8610c02565b6001600160a01b038116610bf657604051631e4fbdf760e01b81525f60048201526024015b60405180910390fd5b610bff81610de9565b50565b5f546001600160a01b031633146107225760405163118cdaa760e01b8152336004820152602401610bed565b610c36611101565b60025f8051602061198a83398151915255565b6004545f90610c65906001600160a01b03878116911685611130565b6001600160a01b0385165f9081526006602052604081205462ffffff16610c935760075462ffffff16610cb1565b6001600160a01b0386165f9081526006602052604090205462ffffff165b6040805160e0810182526001600160a01b0389811682528881166020830190815262ffffff8581168486019081527f0000000000000000000000000000000000000000000000000000000000000000841660608601908152608086018c815260a087018c81525f60c08901908152600480549a516304e45aaf60e01b81528a518a169181019190915296518816602488015293519094166044860152905185166064850152516084840152905160a483015251821660c482015293945090929116906304e45aaf9060e4016020604051808303815f875af1158015610d98573d5f803e3d5ffd5b505050506040513d601f19601f82011682018060405250810190610dbc91906117fd565b925083831015610ddf57604051638199f5f360e01b815260040160405180910390fd5b5050949350505050565b5f80546001600160a01b038381166001600160a01b0319831681178455604051919092169283917f8be0079c531659141344cd1fd0a4f28419497f9722a3daafe3b4186f6b6457e09190a35050565b5f8060025484610e4891906117ea565b8511610e5857505f905080610f8d565b5f610e6385876117d7565b9050612710610e72828661182c565b610e7c9190611843565b6003546040516341976e0960e01b81526001600160a01b038a811660048301529294505f92909116906341976e0990602401602060405180830381865afa158015610ec9573d5f803e3d5ffd5b505050506040513d601f19601f82011682018060405250810190610eed91906117fd565b90505f81610f0385670de0b6b3a764000061182c565b610f0d9190611843565b9050610f19818a6111af565b90508015610f8957600554610f39908a906001600160a01b0316836112a8565b60055460408051848152602081018490529297506001600160a01b0391821692918c16917fdd36740e2a012d93061a0d99eaa9107860955de4e90027d3cf465a055026c407910160405180910390a35b5050505b94509492505050565b5f8360025486610fa691906117ea565b10610fb257505f6110f8565b5f610fbd86866117d7565b90505f612710610fcd838761182c565b610fd79190611843565b6003546005546040516341976e0960e01b81526001600160a01b0391821660048201529293505f929116906341976e0990602401602060405180830381865afa158015611026573d5f803e3d5ffd5b505050506040513d601f19601f8201168201806040525081019061104a91906117fd565b90505f8161106084670de0b6b3a764000061182c565b61106a9190611843565b9050858111156110775750845b80156110f0576005545f90611096906001600160a01b03168c846112a8565b60055460408051858152602081018490529293506001600160a01b038e8116939216917fdd36740e2a012d93061a0d99eaa9107860955de4e90027d3cf465a055026c407910160405180910390a35093506110f892505050565b5f9450505050505b95945050505050565b5f8051602061198a8339815191525460020361072257604051633ee5aeb560e01b815260040160405180910390fd5b61113c8383835f61146a565b6111aa5761114d83835f600161146a565b61117557604051635274afe760e01b81526001600160a01b0384166004820152602401610bed565b611182838383600161146a565b6111aa57604051635274afe760e01b81526001600160a01b0384166004820152602401610bed565b505050565b6040516323b95ceb60e21b81526001600160a01b0382811660048301525f9182917f00000000000000000000000000000000000000000000000000000000000000001690638ee573ac90602401602060405180830381865afa158015611217573d5f803e3d5ffd5b505050506040513d601f19601f8201168201806040525081019061123b9190611862565b905060128160ff16101561127157611254816012611882565b61125f90600a61197b565b6112699085611843565b9150506112a2565b60128160ff16111561129d57611288601282611882565b61129390600a61197b565b611269908561182c565b839150505b92915050565b604051633d97457d60e01b81526001600160a01b038481166004830152306024830152604482018390525f917f000000000000000000000000000000000000000000000000000000000000000090911690633d97457d906064015f604051808303815f87803b158015611319575f80fd5b505af115801561132b573d5f803e3d5ffd5b50506003546040516341976e0960e01b81526001600160a01b0388811660048301525f945090911691506341976e0990602401602060405180830381865afa158015611379573d5f803e3d5ffd5b505050506040513d601f19601f8201168201806040525081019061139d91906117fd565b6003546040516341976e0960e01b81526001600160a01b0387811660048301529293505f92909116906341976e0990602401602060405180830381865afa1580156113ea573d5f803e3d5ffd5b505050506040513d601f19601f8201168201806040525081019061140e91906117fd565b90505f8161141c848761182c565b6114269190611843565b90505f61271060015461271061143c91906117d7565b611446908461182c565b6114509190611843565b905061145e88888884610c49565b98975050505050505050565b60405163095ea7b360e01b5f8181526001600160a01b038616600452602485905291602083604481808b5af1925060015f511483166114c05783831516156114b4573d5f823e3d81fd5b5f873b113d1516831692505b60405250949350505050565b803580151581146114db575f80fd5b919050565b5f602082840312156114f0575f80fd5b6114f9826114cc565b9392505050565b6001600160a01b0381168114610bff575f80fd5b5f805f8060808587031215611527575f80fd5b843561153281611500565b9350602085013561154281611500565b93969395505050506040820135916060013590565b5f60208284031215611567575f80fd5b81356114f981611500565b5f60208284031215611582575f80fd5b5035919050565b5f806040838503121561159a575f80fd5b82356115a581611500565b91506115b3602084016114cc565b90509250929050565b5f80604083850312156115cd575f80fd5b82356115d881611500565b9150602083013562ffffff811681146115ef575f80fd5b809150509250929050565b634e487b7160e01b5f52604160045260245ffd5b604051601f8201601f1916810167ffffffffffffffff81118282101715611637576116376115fa565b604052919050565b5f67ffffffffffffffff821115611658576116586115fa565b5060051b60200190565b5f82601f830112611671575f80fd5b815160206116866116818361163f565b61160e565b8083825260208201915060208460051b8701019350868411156116a7575f80fd5b602086015b848110156116c357805183529183019183016116ac565b509695505050505050565b5f805f606084860312156116e0575f80fd5b835167ffffffffffffffff808211156116f7575f80fd5b818601915086601f83011261170a575f80fd5b8151602061171a6116818361163f565b82815260059290921b8401810191818101908a841115611738575f80fd5b948201945b8386101561175f57855161175081611500565b8252948201949082019061173d565b91890151919750909350505080821115611777575f80fd5b61178387838801611662565b93506040860151915080821115611798575f80fd5b506117a586828701611662565b9150509250925092565b634e487b7160e01b5f52603260045260245ffd5b634e487b7160e01b5f52601160045260245ffd5b818103818111156112a2576112a26117c3565b808201808211156112a2576112a26117c3565b5f6020828403121561180d575f80fd5b5051919050565b5f60018201611825576118256117c3565b5060010190565b80820281158282048414176112a2576112a26117c3565b5f8261185d57634e487b7160e01b5f52601260045260245ffd5b500490565b5f60208284031215611872575f80fd5b815160ff811681146114f9575f80fd5b60ff82811682821603908111156112a2576112a26117c3565b600181815b808511156118d557815f19048211156118bb576118bb6117c3565b808516156118c857918102915b93841c93908002906118a0565b509250929050565b5f826118eb575060016112a2565b816118f757505f6112a2565b816001811461190d576002811461191757611933565b60019150506112a2565b60ff841115611928576119286117c3565b50506001821b6112a2565b5060208310610133831016604e8410600b8410161715611956575081810a6112a2565b611960838361189b565b805f1904821115611973576119736117c3565b029392505050565b5f6114f960ff8416836118dd56fe9b779b17422d0df92223018b32b4d1fa46e071723d6817e2486d003becc55f00a26469706673582212206f8c9da7f915c37e6edd7e6ee23df48b4c6f44fbea0da35cb60f79a2142fcc4164736f6c63430008180033","linkReferences":{}},"methodIdentifiers":{"BPS()":"249d39e9","checkRebalanceNeeded()":"5fd4743a","defaultPoolFee()":"6f60a6dd","driftThresholdBps()":"8bdc2981","executeRebalance()":"9bb71aef","keepers(address)":"3bbd64bc","lastRebalanceTime()":"d9ca21d5","manualSwap(address,address,uint256,uint256)":"1cb42f06","maxSlippageBps()":"c4aa7395","minRebalanceInterval()":"6c252eb2","owner()":"8da5cb5b","paused()":"5c975abb","poolFees(address)":"be6e9161","priceFeed()":"741bef1a","renounceOwnership()":"715018a6","setDriftThreshold(uint256)":"6d68da32","setKeeper(address,bool)":"d1b9e853","setMaxSlippage(uint256)":"43f68a49","setMinRebalanceInterval(uint256)":"4e18f760","setPaused(bool)":"16c38b3c","setPoolFee(address,uint24)":"f0b20dcd","setSwapRouter(address)":"41273657","swapRouter()":"c31c9c07","transferOwnership(address)":"f2fde38b","vault()":"fbfa77cf","weth()":"3fc8cef3"},"id":40}