{"abi":[{"type":"constructor","inputs":[{"name":"_vault","type":"address","internalType":"address"},{"name":"_priceFeed","type":"address","internalType":"address"},{"name":"_swapRouter","type":"address","internalType":"address"},{"name":"_weth","type":"address","internalType":"address"}],"stateMutability":"nonpayable"},{"type":"function","name":"BPS","inputs":[],"outputs":[{"name":"","type":"uint256","internalType":"uint256"}],"stateMutability":"view"},{"type":"function","name":"MAX_SWAPS_PER_BATCH","inputs":[],"outputs":[{"name":"","type":"uint256","internalType":"uint256"}],"stateMutability":"view"},{"type":"function","name":"PRICE_PRECISION","inputs":[],"outputs":[{"name":"","type":"uint256","internalType":"uint256"}],"stateMutability":"view"},{"type":"function","name":"TIER1_DRIFT_BPS","inputs":[],"outputs":[{"name":"","type":"uint256","internalType":"uint256"}],"stateMutability":"view"},{"type":"function","name":"TIER2_DRIFT_BPS","inputs":[],"outputs":[{"name":"","type":"uint256","internalType":"uint256"}],"stateMutability":"view"},{"type":"function","name":"checkTokenDrift","inputs":[{"name":"token","type":"address","internalType":"address"},{"name":"targetWeight","type":"uint256","internalType":"uint256"},{"name":"tier","type":"uint8","internalType":"uint8"}],"outputs":[{"name":"drift","type":"uint256","internalType":"uint256"},{"name":"needsRebalance","type":"bool","internalType":"bool"}],"stateMutability":"view"},{"type":"function","name":"dailyRebalanceValue","inputs":[],"outputs":[{"name":"","type":"uint256","internalType":"uint256"}],"stateMutability":"view"},{"type":"function","name":"executeBatchSwaps","inputs":[{"name":"swaps","type":"tuple[]","internalType":"struct BatchRebalancer.SwapParams[]","components":[{"name":"tokenIn","type":"address","internalType":"address"},{"name":"tokenOut","type":"address","internalType":"address"},{"name":"amountIn","type":"uint256","internalType":"uint256"},{"name":"minAmountOut","type":"uint256","internalType":"uint256"},{"name":"poolFee","type":"uint24","internalType":"uint24"}]}],"outputs":[{"name":"totalValueSwapped","type":"uint256","internalType":"uint256"}],"stateMutability":"nonpayable"},{"type":"function","name":"executeBatchSwapsVerified","inputs":[{"name":"swaps","type":"tuple[]","internalType":"struct BatchRebalancer.SwapParams[]","components":[{"name":"tokenIn","type":"address","internalType":"address"},{"name":"tokenOut","type":"address","internalType":"address"},{"name":"amountIn","type":"uint256","internalType":"uint256"},{"name":"minAmountOut","type":"uint256","internalType":"uint256"},{"name":"poolFee","type":"uint24","internalType":"uint24"}]},{"name":"weightProofs","type":"tuple[]","internalType":"struct BatchRebalancer.WeightProof[]","components":[{"name":"token","type":"address","internalType":"address"},{"name":"weight","type":"uint256","internalType":"uint256"},{"name":"tier","type":"uint8","internalType":"uint8"},{"name":"proof","type":"bytes32[]","internalType":"bytes32[]"}]}],"outputs":[{"name":"totalValueSwapped","type":"uint256","internalType":"uint256"}],"stateMutability":"nonpayable"},{"type":"function","name":"getCurrentWeight","inputs":[{"name":"token","type":"address","internalType":"address"}],"outputs":[{"name":"weight","type":"uint256","internalType":"uint256"}],"stateMutability":"view"},{"type":"function","name":"keepers","inputs":[{"name":"","type":"address","internalType":"address"}],"outputs":[{"name":"","type":"bool","internalType":"bool"}],"stateMutability":"view"},{"type":"function","name":"lastRebalanceDay","inputs":[],"outputs":[{"name":"","type":"uint256","internalType":"uint256"}],"stateMutability":"view"},{"type":"function","name":"maxDailyRebalanceBps","inputs":[],"outputs":[{"name":"","type":"uint256","internalType":"uint256"}],"stateMutability":"view"},{"type":"function","name":"maxSlippageBps","inputs":[],"outputs":[{"name":"","type":"uint256","internalType":"uint256"}],"stateMutability":"view"},{"type":"function","name":"owner","inputs":[],"outputs":[{"name":"","type":"address","internalType":"address"}],"stateMutability":"view"},{"type":"function","name":"paused","inputs":[],"outputs":[{"name":"","type":"bool","internalType":"bool"}],"stateMutability":"view"},{"type":"function","name":"priceFeed","inputs":[],"outputs":[{"name":"","type":"address","internalType":"contract IPriceFeed"}],"stateMutability":"view"},{"type":"function","name":"renounceOwnership","inputs":[],"outputs":[],"stateMutability":"nonpayable"},{"type":"function","name":"setKeeper","inputs":[{"name":"keeper","type":"address","internalType":"address"},{"name":"authorized","type":"bool","internalType":"bool"}],"outputs":[],"stateMutability":"nonpayable"},{"type":"function","name":"setMaxDailyRebalanceBps","inputs":[{"name":"_maxDaily","type":"uint256","internalType":"uint256"}],"outputs":[],"stateMutability":"nonpayable"},{"type":"function","name":"setMaxSlippageBps","inputs":[{"name":"_slippage","type":"uint256","internalType":"uint256"}],"outputs":[],"stateMutability":"nonpayable"},{"type":"function","name":"setPaused","inputs":[{"name":"_paused","type":"bool","internalType":"bool"}],"outputs":[],"stateMutability":"nonpayable"},{"type":"function","name":"setPriceFeed","inputs":[{"name":"_priceFeed","type":"address","internalType":"address"}],"outputs":[],"stateMutability":"nonpayable"},{"type":"function","name":"setSwapRouter","inputs":[{"name":"_router","type":"address","internalType":"address"}],"outputs":[],"stateMutability":"nonpayable"},{"type":"function","name":"swapRouter","inputs":[],"outputs":[{"name":"","type":"address","internalType":"contract ISwapRouter"}],"stateMutability":"view"},{"type":"function","name":"transferOwnership","inputs":[{"name":"newOwner","type":"address","internalType":"address"}],"outputs":[],"stateMutability":"nonpayable"},{"type":"function","name":"vault","inputs":[],"outputs":[{"name":"","type":"address","internalType":"contract IndexVaultV2"}],"stateMutability":"view"},{"type":"function","name":"weth","inputs":[],"outputs":[{"name":"","type":"address","internalType":"address"}],"stateMutability":"view"},{"type":"event","name":"BatchSwapExecuted","inputs":[{"name":"batchId","type":"uint256","indexed":true,"internalType":"uint256"},{"name":"swapCount","type":"uint256","indexed":false,"internalType":"uint256"},{"name":"totalValueSwapped","type":"uint256","indexed":false,"internalType":"uint256"}],"anonymous":false},{"type":"event","name":"KeeperUpdated","inputs":[{"name":"keeper","type":"address","indexed":true,"internalType":"address"},{"name":"authorized","type":"bool","indexed":false,"internalType":"bool"}],"anonymous":false},{"type":"event","name":"OwnershipTransferred","inputs":[{"name":"previousOwner","type":"address","indexed":true,"internalType":"address"},{"name":"newOwner","type":"address","indexed":true,"internalType":"address"}],"anonymous":false},{"type":"event","name":"SwapExecuted","inputs":[{"name":"tokenIn","type":"address","indexed":true,"internalType":"address"},{"name":"tokenOut","type":"address","indexed":true,"internalType":"address"},{"name":"amountIn","type":"uint256","indexed":false,"internalType":"uint256"},{"name":"amountOut","type":"uint256","indexed":false,"internalType":"uint256"}],"anonymous":false},{"type":"error","name":"DailyLimitExceeded","inputs":[]},{"type":"error","name":"InvalidProof","inputs":[]},{"type":"error","name":"NotKeeper","inputs":[]},{"type":"error","name":"OwnableInvalidOwner","inputs":[{"name":"owner","type":"address","internalType":"address"}]},{"type":"error","name":"OwnableUnauthorizedAccount","inputs":[{"name":"account","type":"address","internalType":"address"}]},{"type":"error","name":"Paused","inputs":[]},{"type":"error","name":"ReentrancyGuardReentrantCall","inputs":[]},{"type":"error","name":"SafeERC20FailedOperation","inputs":[{"name":"token","type":"address","internalType":"address"}]},{"type":"error","name":"SlippageExceeded","inputs":[]},{"type":"error","name":"TooManySwaps","inputs":[]},{"type":"error","name":"ZeroAddress","inputs":[]}],"bytecode":{"object":"0x60c060405261012c6004556103e86005553480156200001c575f80fd5b5060405162001df038038062001df08339810160408190526200003f9162000182565b33806200006557604051631e4fbdf760e01b81525f600482015260240160405180910390fd5b620000708162000117565b5060017f9b779b17422d0df92223018b32b4d1fa46e071723d6817e2486d003becc55f00556001600160a01b038416620000bd5760405163d92e233d60e01b815260040160405180910390fd5b6001600160a01b03938416608052600180549385166001600160a01b0319948516178155600280549386169390941692909217909255911660a052335f908152600360205260409020805460ff19169091179055620001dc565b5f80546001600160a01b038381166001600160a01b0319831681178455604051919092169283917f8be0079c531659141344cd1fd0a4f28419497f9722a3daafe3b4186f6b6457e09190a35050565b80516001600160a01b03811681146200017d575f80fd5b919050565b5f805f806080858703121562000196575f80fd5b620001a18562000166565b9350620001b16020860162000166565b9250620001c16040860162000166565b9150620001d16060860162000166565b905092959194509250565b60805160a051611b9e620002525f395f61026901525f81816103d10152818161048b015281816107a801528181610af601528181610c9301528181610d3901528181610e9101528181610f3b015281816111290152818161125e0152818161137d0152818161142b01526114ae0152611b9e5ff3fe608060405234801561000f575f80fd5b50600436106101bb575f3560e01c8063741bef1a116100f3578063cb88b05a11610093578063ecb77c331161006e578063ecb77c3314610388578063f2fde38b146103b0578063f44c51a0146103c3578063fbfa77cf146103cc575f80fd5b8063cb88b05a14610363578063cdd7c8b61461036c578063d1b9e85314610375575f80fd5b806394d00e0a116100ce57806394d00e0a1461033057806395082d2514610338578063c31c9c0714610347578063c4aa73951461035a575f80fd5b8063741bef1a146102fa578063866f8bbb1461030d5780638da5cb5b14610320575f80fd5b80633fc8cef31161015e57806354ef1aa41161013957806354ef1aa4146102bf5780635c975abb146102d2578063715018a6146102df578063724e78da146102e7575f80fd5b80633fc8cef31461026457806341273657146102a3578063442c74ab146102b6575f80fd5b8063249d39e911610199578063249d39e91461020d57806325fc1b3d1461021657806331b99f07146102295780633bbd64bc14610232575f80fd5b806302139f85146101bf57806316c38b3c146101e55780631bc89373146101fa575b5f80fd5b6101d26101cd366004611850565b6103f3565b6040519081526020015b60405180910390f35b6101f86101f33660046118f6565b6108cd565b005b6101d261020836600461190f565b6108e8565b6101d261271081565b6101f861022436600461194e565b610c18565b6101d26103e881565b61025461024036600461197b565b60036020525f908152604090205460ff1681565b60405190151581526020016101dc565b61028b7f000000000000000000000000000000000000000000000000000000000000000081565b6040516001600160a01b0390911681526020016101dc565b6101f86102b136600461197b565b610c65565b6101d260075481565b6101d26102cd36600461197b565b610c8f565b6008546102549060ff1681565b6101f8610ddc565b6101f86102f536600461197b565b610def565b60015461028b906001600160a01b031681565b6101f861031b36600461194e565b610e19565b5f546001600160a01b031661028b565b6101d2601e81565b6101d2670de0b6b3a764000081565b60025461028b906001600160a01b031681565b6101d260045481565b6101d260065481565b6101d260055481565b6101f8610383366004611994565b610e26565b61039b6103963660046119d5565b610e8c565b604080519283529015156020830152016101dc565b6101f86103be36600461197b565b611024565b6101d26101f481565b61028b7f000000000000000000000000000000000000000000000000000000000000000081565b335f9081526003602052604081205460ff1615801561041c57505f546001600160a01b03163314155b1561043a57604051631ea2564f60e31b815260040160405180910390fd5b60085460ff161561045e576040516313d0ff5960e31b815260040160405180910390fd5b610466611061565b601e8411156104885760405163508281cd60e01b815260040160405180910390fd5b5f7f00000000000000000000000000000000000000000000000000000000000000006001600160a01b03166317beffee6040518163ffffffff1660e01b8152600401602060405180830381865afa1580156104e5573d5f803e3d5ffd5b505050506040513d601f19601f820116820180604052508101906105099190611a0e565b90505f5b83811015610614575f6105eb8387878581811061052c5761052c611a25565b905060200281019061053e9190611a39565b61054c90602081019061197b565b88888681811061055e5761055e611a25565b90506020028101906105709190611a39565b6020013589898781811061058657610586611a25565b90506020028101906105989190611a39565b6105a9906060810190604001611a57565b6105b4876001611a84565b8b8b898181106105c6576105c6611a25565b90506020028101906105d89190611a39565b6105e6906060810190611a97565b61107c565b90508061060b576040516309bde33960e01b815260040160405180910390fd5b5060010161050d565b505f6106236201518042611add565b9050600754811115610639575f60065560078190555b5f5b8681101561078c575f61066489898481811061065957610659611a25565b905060a0020161111e565b90505f6106b38a8a8581811061067c5761067c611a25565b61069292602060a090920201908101915061197b565b8b8b868181106106a4576106a4611a25565b905060a002016040013561153b565b90506106bf8187611a84565b95508989848181106106d3576106d3611a25565b905060a0020160200160208101906106eb919061197b565b6001600160a01b03168a8a8581811061070657610706611a25565b61071c92602060a090920201908101915061197b565b6001600160a01b03167fdd36740e2a012d93061a0d99eaa9107860955de4e90027d3cf465a055026c4078c8c8781811061075857610758611a25565b905060a00201604001358560405161077a929190918252602082015260400190565b60405180910390a3505060010161063b565b508260065f82825461079e9190611a84565b925050819055505f7f00000000000000000000000000000000000000000000000000000000000000006001600160a01b0316633552c62f6040518163ffffffff1660e01b8152600401602060405180830381865afa158015610802573d5f803e3d5ffd5b505050506040513d601f19601f820116820180604052508101906108269190611a0e565b90508015610871575f612710600554836108409190611afc565b61084a9190611add565b905080600654111561086f57604051630652f4c560e21b815260040160405180910390fd5b505b604080518881526020810186905242917fd4c22493e0aaec761df8f89beac249a28e68282a4c072c247156d6ce537618c9910160405180910390a25050506108c560015f80516020611b4983398151915255565b949350505050565b6108d56115d5565b6008805460ff1916911515919091179055565b335f9081526003602052604081205460ff1615801561091157505f546001600160a01b03163314155b1561092f57604051631ea2564f60e31b815260040160405180910390fd5b60085460ff1615610953576040516313d0ff5960e31b815260040160405180910390fd5b61095b611061565b601e82111561097d5760405163508281cd60e01b815260040160405180910390fd5b5f61098b6201518042611add565b90506007548111156109a1575f60065560078190555b5f5b83811015610ada575f6109c186868481811061065957610659611a25565b90505f610a018787858181106109d9576109d9611a25565b6109ef92602060a090920201908101915061197b565b8888868181106106a4576106a4611a25565b9050610a0d8186611a84565b9450868684818110610a2157610a21611a25565b905060a002016020016020810190610a39919061197b565b6001600160a01b0316878785818110610a5457610a54611a25565b610a6a92602060a090920201908101915061197b565b6001600160a01b03167fdd36740e2a012d93061a0d99eaa9107860955de4e90027d3cf465a055026c407898987818110610aa657610aa6611a25565b905060a002016040013585604051610ac8929190918252602082015260400190565b60405180910390a350506001016109a3565b508160065f828254610aec9190611a84565b925050819055505f7f00000000000000000000000000000000000000000000000000000000000000006001600160a01b0316633552c62f6040518163ffffffff1660e01b8152600401602060405180830381865afa158015610b50573d5f803e3d5ffd5b505050506040513d601f19601f82011682018060405250810190610b749190611a0e565b90508015610bbf575f61271060055483610b8e9190611afc565b610b989190611add565b9050806006541115610bbd57604051630652f4c560e21b815260040160405180910390fd5b505b604080518581526020810185905242917fd4c22493e0aaec761df8f89beac249a28e68282a4c072c247156d6ce537618c9910160405180910390a25050610c1260015f80516020611b4983398151915255565b92915050565b610c206115d5565b6101f4811115610c605760405162461bcd60e51b81526020600482015260066024820152654d617820352560d01b60448201526064015b60405180910390fd5b600455565b610c6d6115d5565b600280546001600160a01b0319166001600160a01b0392909216919091179055565b5f807f00000000000000000000000000000000000000000000000000000000000000006001600160a01b0316633552c62f6040518163ffffffff1660e01b8152600401602060405180830381865afa158015610ced573d5f803e3d5ffd5b505050506040513d601f19601f82011682018060405250810190610d119190611a0e565b9050805f03610d2257505f92915050565b6040516370a0823160e01b81526001600160a01b037f0000000000000000000000000000000000000000000000000000000000000000811660048301525f91908516906370a0823190602401602060405180830381865afa158015610d89573d5f803e3d5ffd5b505050506040513d601f19601f82011682018060405250810190610dad9190611a0e565b90505f610dba858361153b565b905082610dc961271083611afc565b610dd39190611add565b95945050505050565b610de46115d5565b610ded5f611601565b565b610df76115d5565b600180546001600160a01b0319166001600160a01b0392909216919091179055565b610e216115d5565b600555565b610e2e6115d5565b6001600160a01b0382165f81815260036020908152604091829020805460ff191685151590811790915591519182527f786c9db967bf0c6b16c7c91adae8a8c554b15a57d373fa2059607300f4616c00910160405180910390a25050565b5f805f7f00000000000000000000000000000000000000000000000000000000000000006001600160a01b0316633552c62f6040518163ffffffff1660e01b8152600401602060405180830381865afa158015610eeb573d5f803e3d5ffd5b505050506040513d601f19601f82011682018060405250810190610f0f9190611a0e565b9050805f03610f24575f80925092505061101c565b6040516370a0823160e01b81526001600160a01b037f0000000000000000000000000000000000000000000000000000000000000000811660048301525f91908816906370a0823190602401602060405180830381865afa158015610f8b573d5f803e3d5ffd5b505050506040513d601f19601f82011682018060405250810190610faf9190611a0e565b90505f610fbc888361153b565b90505f83610fcc61271084611afc565b610fd69190611add565b9050878111610fee57610fe98189611b13565b610ff8565b610ff88882611b13565b95505f8760ff1660011461100e576103e8611012565b6101f45b8711955050505050505b935093915050565b61102c6115d5565b6001600160a01b03811661105557604051631e4fbdf760e01b81525f6004820152602401610c57565b61105e81611601565b50565b611069611650565b60025f80516020611b4983398151915255565b60408051606088901b6bffffffffffffffffffffffff19166020808301919091526034820188905260f887901b6001600160f81b031916605483015260f086901b6001600160f01b03191660558301528251603781840301815260578301845280519082012060778084019190915283518084039091018152609790920190925280519101205f908861111085858461167f565b149998505050505050505050565b5f6001600160a01b037f000000000000000000000000000000000000000000000000000000000000000016633d97457d61115b602085018561197b565b604080516001600160e01b031960e085901b1681526001600160a01b03909216600483015230602483015285013560448201526064015f604051808303815f87803b1580156111a8575f80fd5b505af11580156111ba573d5f803e3d5ffd5b50506002546111f192506001600160a01b0316905060408401356111e1602086018661197b565b6001600160a01b031691906116be565b6040805160e081019091525f908061120c602086018661197b565b6001600160a01b0316815260200184602001602081019061122d919061197b565b6001600160a01b0316815260200161124b60a0860160808701611b26565b62ffffff90811682526001600160a01b037f00000000000000000000000000000000000000000000000000000000000000008116602080850191909152604088810135818601526060808a0135818701525f60809687015260025482516304e45aaf60e01b81528851861660048201529388015185166024850152918701519094166044830152928501518216606482015292840151608484015260a084015160a484015260c0840151811660c4840152929350909116906304e45aaf9060e4016020604051808303815f875af1158015611328573d5f803e3d5ffd5b505050506040513d601f19601f8201168201806040525081019061134c9190611a0e565b9150826060013582101561137357604051638199f5f360e01b815260040160405180910390fd5b6001600160a01b037f00000000000000000000000000000000000000000000000000000000000000001663e42e1a846113b2604086016020870161197b565b6040516001600160e01b031960e084901b1681526001600160a01b0390911660048201526024015f604051808303815f87803b1580156113f0575f80fd5b505af1158015611402573d5f803e3d5ffd5b5061141492505050602084018461197b565b6040516370a0823160e01b81526001600160a01b037f00000000000000000000000000000000000000000000000000000000000000008116600483015291909116906370a0823190602401602060405180830381865afa15801561147a573d5f803e3d5ffd5b505050506040513d601f19601f8201168201806040525081019061149e9190611a0e565b5f03611535576001600160a01b037f00000000000000000000000000000000000000000000000000000000000000001663583093d46114e0602086018661197b565b6040516001600160e01b031960e084901b1681526001600160a01b0390911660048201526024015f604051808303815f87803b15801561151e575f80fd5b505af1158015611530573d5f803e3d5ffd5b505050505b50919050565b5f815f0361154a57505f610c12565b6001546040516341976e0960e01b81526001600160a01b0385811660048301525f9216906341976e0990602401602060405180830381865afa158015611592573d5f803e3d5ffd5b505050506040513d601f19601f820116820180604052508101906115b69190611a0e565b9050670de0b6b3a76400006115cb8285611afc565b6108c59190611add565b5f546001600160a01b03163314610ded5760405163118cdaa760e01b8152336004820152602401610c57565b5f80546001600160a01b038381166001600160a01b0319831681178455604051919092169283917f8be0079c531659141344cd1fd0a4f28419497f9722a3daafe3b4186f6b6457e09190a35050565b5f80516020611b4983398151915254600203610ded57604051633ee5aeb560e01b815260040160405180910390fd5b805f5b838110156116b6576116ac828686848181106116a0576116a0611a25565b9050602002013561173d565b9150600101611682565b509392505050565b6116ca8383835f6117a6565b611738576116db83835f60016117a6565b61170357604051635274afe760e01b81526001600160a01b0384166004820152602401610c57565b61171083838360016117a6565b61173857604051635274afe760e01b81526001600160a01b0384166004820152602401610c57565b505050565b5f8183106117745760408051602081018490529081018490526060016040516020818303038152906040528051906020012061179f565b6040805160208101859052908101839052606001604051602081830303815290604052805190602001205b9392505050565b60405163095ea7b360e01b5f8181526001600160a01b038616600452602485905291602083604481808b5af1925060015f511483166117fc5783831516156117f0573d5f823e3d81fd5b5f873b113d1516831692505b60405250949350505050565b5f8083601f840112611818575f80fd5b50813567ffffffffffffffff81111561182f575f80fd5b60208301915083602060a083028501011115611849575f80fd5b9250929050565b5f805f8060408587031215611863575f80fd5b843567ffffffffffffffff8082111561187a575f80fd5b61188688838901611808565b9096509450602087013591508082111561189e575f80fd5b818701915087601f8301126118b1575f80fd5b8135818111156118bf575f80fd5b8860208260051b85010111156118d3575f80fd5b95989497505060200194505050565b803580151581146118f1575f80fd5b919050565b5f60208284031215611906575f80fd5b61179f826118e2565b5f8060208385031215611920575f80fd5b823567ffffffffffffffff811115611936575f80fd5b61194285828601611808565b90969095509350505050565b5f6020828403121561195e575f80fd5b5035919050565b80356001600160a01b03811681146118f1575f80fd5b5f6020828403121561198b575f80fd5b61179f82611965565b5f80604083850312156119a5575f80fd5b6119ae83611965565b91506119bc602084016118e2565b90509250929050565b803560ff811681146118f1575f80fd5b5f805f606084860312156119e7575f80fd5b6119f084611965565b925060208401359150611a05604085016119c5565b90509250925092565b5f60208284031215611a1e575f80fd5b5051919050565b634e487b7160e01b5f52603260045260245ffd5b5f8235607e19833603018112611a4d575f80fd5b9190910192915050565b5f60208284031215611a67575f80fd5b61179f826119c5565b634e487b7160e01b5f52601160045260245ffd5b80820180821115610c1257610c12611a70565b5f808335601e19843603018112611aac575f80fd5b83018035915067ffffffffffffffff821115611ac6575f80fd5b6020019150600581901b3603821315611849575f80fd5b5f82611af757634e487b7160e01b5f52601260045260245ffd5b500490565b8082028115828204841417610c1257610c12611a70565b81810381811115610c1257610c12611a70565b5f60208284031215611b36575f80fd5b813562ffffff8116811461179f575f80fdfe9b779b17422d0df92223018b32b4d1fa46e071723d6817e2486d003becc55f00a264697066735822122011eabfc933aae82b45029863eaffce7027b10c408134244cb9fb24cd82566ce464736f6c63430008180033","linkReferences":{}},"methodIdentifiers":{"BPS()":"249d39e9","MAX_SWAPS_PER_BATCH()":"94d00e0a","PRICE_PRECISION()":"95082d25","TIER1_DRIFT_BPS()":"f44c51a0","TIER2_DRIFT_BPS()":"31b99f07","checkTokenDrift(address,uint256,uint8)":"ecb77c33","dailyRebalanceValue()":"cb88b05a","executeBatchSwaps((address,address,uint256,uint256,uint24)[])":"1bc89373","executeBatchSwapsVerified((address,address,uint256,uint256,uint24)[],(address,uint256,uint8,bytes32[])[])":"02139f85","getCurrentWeight(address)":"54ef1aa4","keepers(address)":"3bbd64bc","lastRebalanceDay()":"442c74ab","maxDailyRebalanceBps()":"cdd7c8b6","maxSlippageBps()":"c4aa7395","owner()":"8da5cb5b","paused()":"5c975abb","priceFeed()":"741bef1a","renounceOwnership()":"715018a6","setKeeper(address,bool)":"d1b9e853","setMaxDailyRebalanceBps(uint256)":"866f8bbb","setMaxSlippageBps(uint256)":"25fc1b3d","setPaused(bool)":"16c38b3c","setPriceFeed(address)":"724e78da","setSwapRouter(address)":"41273657","swapRouter()":"c31c9c07","transferOwnership(address)":"f2fde38b","vault()":"fbfa77cf","weth()":"3fc8cef3"},"id":34}