{"abi":[{"type":"constructor","inputs":[{"name":"_ai500","type":"address","internalType":"address"},{"name":"_priceFeed","type":"address","internalType":"address"},{"name":"_weth","type":"address","internalType":"address"},{"name":"_usdc","type":"address","internalType":"address"}],"stateMutability":"nonpayable"},{"type":"function","name":"BPS","inputs":[],"outputs":[{"name":"","type":"uint256","internalType":"uint256"}],"stateMutability":"view"},{"type":"function","name":"MAX_WEIGHT_BPS","inputs":[],"outputs":[{"name":"","type":"uint256","internalType":"uint256"}],"stateMutability":"view"},{"type":"function","name":"PRICE_PRECISION","inputs":[],"outputs":[{"name":"","type":"uint256","internalType":"uint256"}],"stateMutability":"view"},{"type":"function","name":"ROOT_DELAY","inputs":[],"outputs":[{"name":"","type":"uint256","internalType":"uint256"}],"stateMutability":"view"},{"type":"function","name":"activateMerkleRoot","inputs":[],"outputs":[],"stateMutability":"nonpayable"},{"type":"function","name":"addHeldToken","inputs":[{"name":"token","type":"address","internalType":"address"}],"outputs":[],"stateMutability":"nonpayable"},{"type":"function","name":"ai500","inputs":[],"outputs":[{"name":"","type":"address","internalType":"contract AI500"}],"stateMutability":"view"},{"type":"function","name":"cachedNav","inputs":[],"outputs":[{"name":"","type":"uint256","internalType":"uint256"}],"stateMutability":"view"},{"type":"function","name":"deposit","inputs":[{"name":"inputToken","type":"address","internalType":"address"},{"name":"amount","type":"uint256","internalType":"uint256"},{"name":"minAi500Out","type":"uint256","internalType":"uint256"}],"outputs":[{"name":"ai500Minted","type":"uint256","internalType":"uint256"}],"stateMutability":"nonpayable"},{"type":"function","name":"depositsPaused","inputs":[],"outputs":[{"name":"","type":"bool","internalType":"bool"}],"stateMutability":"view"},{"type":"function","name":"emergencySetRoot","inputs":[{"name":"newRoot","type":"bytes32","internalType":"bytes32"}],"outputs":[],"stateMutability":"nonpayable"},{"type":"function","name":"feeBps","inputs":[],"outputs":[{"name":"","type":"uint256","internalType":"uint256"}],"stateMutability":"view"},{"type":"function","name":"feeRecipient","inputs":[],"outputs":[{"name":"","type":"address","internalType":"address"}],"stateMutability":"view"},{"type":"function","name":"getHeldTokenCount","inputs":[],"outputs":[{"name":"","type":"uint256","internalType":"uint256"}],"stateMutability":"view"},{"type":"function","name":"getHeldTokens","inputs":[],"outputs":[{"name":"","type":"address[]","internalType":"address[]"}],"stateMutability":"view"},{"type":"function","name":"getNav","inputs":[],"outputs":[{"name":"nav","type":"uint256","internalType":"uint256"}],"stateMutability":"view"},{"type":"function","name":"getNavPerShare","inputs":[],"outputs":[{"name":"","type":"uint256","internalType":"uint256"}],"stateMutability":"view"},{"type":"function","name":"getTokenBalance","inputs":[{"name":"token","type":"address","internalType":"address"}],"outputs":[{"name":"","type":"uint256","internalType":"uint256"}],"stateMutability":"view"},{"type":"function","name":"heldTokens","inputs":[{"name":"","type":"uint256","internalType":"uint256"}],"outputs":[{"name":"","type":"address","internalType":"address"}],"stateMutability":"view"},{"type":"function","name":"indexer","inputs":[],"outputs":[{"name":"","type":"address","internalType":"address"}],"stateMutability":"view"},{"type":"function","name":"isHeldToken","inputs":[{"name":"","type":"address","internalType":"address"}],"outputs":[{"name":"","type":"bool","internalType":"bool"}],"stateMutability":"view"},{"type":"function","name":"lastNavUpdate","inputs":[],"outputs":[{"name":"","type":"uint256","internalType":"uint256"}],"stateMutability":"view"},{"type":"function","name":"minDepositUsd","inputs":[],"outputs":[{"name":"","type":"uint256","internalType":"uint256"}],"stateMutability":"view"},{"type":"function","name":"owner","inputs":[],"outputs":[{"name":"","type":"address","internalType":"address"}],"stateMutability":"view"},{"type":"function","name":"pendingMerkleRoot","inputs":[],"outputs":[{"name":"","type":"bytes32","internalType":"bytes32"}],"stateMutability":"view"},{"type":"function","name":"pendingRootActivation","inputs":[],"outputs":[{"name":"","type":"uint256","internalType":"uint256"}],"stateMutability":"view"},{"type":"function","name":"priceFeed","inputs":[],"outputs":[{"name":"","type":"address","internalType":"contract IPriceFeed"}],"stateMutability":"view"},{"type":"function","name":"queueMerkleRoot","inputs":[{"name":"newRoot","type":"bytes32","internalType":"bytes32"}],"outputs":[],"stateMutability":"nonpayable"},{"type":"function","name":"rebalancer","inputs":[],"outputs":[{"name":"","type":"address","internalType":"address"}],"stateMutability":"view"},{"type":"function","name":"receiveFromRebalance","inputs":[{"name":"token","type":"address","internalType":"address"},{"name":"amount","type":"uint256","internalType":"uint256"}],"outputs":[],"stateMutability":"nonpayable"},{"type":"function","name":"redeem","inputs":[{"name":"ai500Amount","type":"uint256","internalType":"uint256"},{"name":"outputToken","type":"address","internalType":"address"},{"name":"minOutputAmount","type":"uint256","internalType":"uint256"}],"outputs":[{"name":"outputAmount","type":"uint256","internalType":"uint256"}],"stateMutability":"nonpayable"},{"type":"function","name":"redemptionsPaused","inputs":[],"outputs":[{"name":"","type":"bool","internalType":"bool"}],"stateMutability":"view"},{"type":"function","name":"removeHeldToken","inputs":[{"name":"token","type":"address","internalType":"address"}],"outputs":[],"stateMutability":"nonpayable"},{"type":"function","name":"renounceOwnership","inputs":[],"outputs":[],"stateMutability":"nonpayable"},{"type":"function","name":"setDepositsPaused","inputs":[{"name":"_paused","type":"bool","internalType":"bool"}],"outputs":[],"stateMutability":"nonpayable"},{"type":"function","name":"setFeeBps","inputs":[{"name":"_feeBps","type":"uint256","internalType":"uint256"}],"outputs":[],"stateMutability":"nonpayable"},{"type":"function","name":"setFeeRecipient","inputs":[{"name":"_feeRecipient","type":"address","internalType":"address"}],"outputs":[],"stateMutability":"nonpayable"},{"type":"function","name":"setIndexer","inputs":[{"name":"_indexer","type":"address","internalType":"address"}],"outputs":[],"stateMutability":"nonpayable"},{"type":"function","name":"setMinDepositUsd","inputs":[{"name":"_minDeposit","type":"uint256","internalType":"uint256"}],"outputs":[],"stateMutability":"nonpayable"},{"type":"function","name":"setPriceFeed","inputs":[{"name":"_priceFeed","type":"address","internalType":"address"}],"outputs":[],"stateMutability":"nonpayable"},{"type":"function","name":"setRebalancer","inputs":[{"name":"_rebalancer","type":"address","internalType":"address"}],"outputs":[],"stateMutability":"nonpayable"},{"type":"function","name":"setRedemptionsPaused","inputs":[{"name":"_paused","type":"bool","internalType":"bool"}],"outputs":[],"stateMutability":"nonpayable"},{"type":"function","name":"tokenDecimals","inputs":[{"name":"","type":"address","internalType":"address"}],"outputs":[{"name":"","type":"uint8","internalType":"uint8"}],"stateMutability":"view"},{"type":"function","name":"transferForRebalance","inputs":[{"name":"token","type":"address","internalType":"address"},{"name":"to","type":"address","internalType":"address"},{"name":"amount","type":"uint256","internalType":"uint256"}],"outputs":[],"stateMutability":"nonpayable"},{"type":"function","name":"transferOwnership","inputs":[{"name":"newOwner","type":"address","internalType":"address"}],"outputs":[],"stateMutability":"nonpayable"},{"type":"function","name":"usdc","inputs":[],"outputs":[{"name":"","type":"address","internalType":"address"}],"stateMutability":"view"},{"type":"function","name":"verifyWeight","inputs":[{"name":"token","type":"address","internalType":"address"},{"name":"weight","type":"uint256","internalType":"uint256"},{"name":"proof","type":"bytes32[]","internalType":"bytes32[]"}],"outputs":[{"name":"","type":"bool","internalType":"bool"}],"stateMutability":"view"},{"type":"function","name":"weightsMerkleRoot","inputs":[],"outputs":[{"name":"","type":"bytes32","internalType":"bytes32"}],"stateMutability":"view"},{"type":"function","name":"weth","inputs":[],"outputs":[{"name":"","type":"address","internalType":"address"}],"stateMutability":"view"},{"type":"event","name":"Deposit","inputs":[{"name":"user","type":"address","indexed":true,"internalType":"address"},{"name":"inputToken","type":"address","indexed":true,"internalType":"address"},{"name":"inputAmount","type":"uint256","indexed":false,"internalType":"uint256"},{"name":"ai500Minted","type":"uint256","indexed":false,"internalType":"uint256"},{"name":"usdValue","type":"uint256","indexed":false,"internalType":"uint256"}],"anonymous":false},{"type":"event","name":"MerkleRootActivated","inputs":[{"name":"oldRoot","type":"bytes32","indexed":true,"internalType":"bytes32"},{"name":"newRoot","type":"bytes32","indexed":true,"internalType":"bytes32"}],"anonymous":false},{"type":"event","name":"MerkleRootQueued","inputs":[{"name":"newRoot","type":"bytes32","indexed":true,"internalType":"bytes32"},{"name":"activationTime","type":"uint256","indexed":false,"internalType":"uint256"}],"anonymous":false},{"type":"event","name":"NavUpdated","inputs":[{"name":"nav","type":"uint256","indexed":false,"internalType":"uint256"},{"name":"timestamp","type":"uint256","indexed":false,"internalType":"uint256"}],"anonymous":false},{"type":"event","name":"OwnershipTransferred","inputs":[{"name":"previousOwner","type":"address","indexed":true,"internalType":"address"},{"name":"newOwner","type":"address","indexed":true,"internalType":"address"}],"anonymous":false},{"type":"event","name":"Redeem","inputs":[{"name":"user","type":"address","indexed":true,"internalType":"address"},{"name":"outputToken","type":"address","indexed":true,"internalType":"address"},{"name":"ai500Burned","type":"uint256","indexed":false,"internalType":"uint256"},{"name":"outputAmount","type":"uint256","indexed":false,"internalType":"uint256"},{"name":"usdValue","type":"uint256","indexed":false,"internalType":"uint256"}],"anonymous":false},{"type":"event","name":"TokenAdded","inputs":[{"name":"token","type":"address","indexed":true,"internalType":"address"}],"anonymous":false},{"type":"event","name":"TokenRemoved","inputs":[{"name":"token","type":"address","indexed":true,"internalType":"address"}],"anonymous":false},{"type":"error","name":"BelowMinimum","inputs":[]},{"type":"error","name":"DepositsPaused","inputs":[]},{"type":"error","name":"InvalidProof","inputs":[]},{"type":"error","name":"InvalidToken","inputs":[]},{"type":"error","name":"OnlyIndexer","inputs":[]},{"type":"error","name":"OnlyRebalancer","inputs":[]},{"type":"error","name":"OwnableInvalidOwner","inputs":[{"name":"owner","type":"address","internalType":"address"}]},{"type":"error","name":"OwnableUnauthorizedAccount","inputs":[{"name":"account","type":"address","internalType":"address"}]},{"type":"error","name":"RedemptionsPaused","inputs":[]},{"type":"error","name":"ReentrancyGuardReentrantCall","inputs":[]},{"type":"error","name":"RootNotReady","inputs":[]},{"type":"error","name":"SafeERC20FailedOperation","inputs":[{"name":"token","type":"address","internalType":"address"}]},{"type":"error","name":"SlippageExceeded","inputs":[]},{"type":"error","name":"WeightExceedsMax","inputs":[]},{"type":"error","name":"ZeroAddress","inputs":[]},{"type":"error","name":"ZeroAmount","inputs":[]}],"bytecode":{"object":"0x60e0604052678ac7230489e80000600d55601e600e5534801562000021575f80fd5b50604051620023d5380380620023d58339810160408190526200004491620001c0565b33806200006a57604051631e4fbdf760e01b81525f600482015260240160405180910390fd5b620000758162000155565b5060017f9b779b17422d0df92223018b32b4d1fa46e071723d6817e2486d003becc55f00556001600160a01b0384161580620000b857506001600160a01b038316155b15620000d75760405163d92e233d60e01b815260040160405180910390fd5b6001600160a01b0382161580620000f557506001600160a01b038116155b15620001145760405163d92e233d60e01b815260040160405180910390fd5b6001600160a01b03938416608052600180549385166001600160a01b031994851617905590831660a05290911660c052600f8054909116331790556200021a565b5f80546001600160a01b038381166001600160a01b0319831681178455604051919092169283917f8be0079c531659141344cd1fd0a4f28419497f9722a3daafe3b4186f6b6457e09190a35050565b80516001600160a01b0381168114620001bb575f80fd5b919050565b5f805f8060808587031215620001d4575f80fd5b620001df85620001a4565b9350620001ef60208601620001a4565b9250620001ff60408601620001a4565b91506200020f60608601620001a4565b905092959194509250565b60805160a05160c051612151620002845f395f81816104190152818161070701526113d001525f8181610440015281816106ca015261139301525f81816103280152818161086701528181610954015281816112550152818161142601526116ab01526121515ff3fe608060405234801561000f575f80fd5b50600436106102b1575f3560e01c806360da3e831161017b5780638ee573ac116100e4578063b808e3431161009e578063e06118b711610079578063e06118b71461060d578063e42e1a8414610620578063e74b981b14610633578063f2fde38b14610646575f80fd5b8063b808e343146105e8578063d248f07e146105f1578063d8780161146105fa575f80fd5b80638ee573ac1461056e57806394d02361146105a257806395082d25146105b55780639637f475146105c4578063abd894b0146105cd578063b6f9ab4b146105d5575f80fd5b806372c27b621161013557806372c27b621461051357806373b693211461052657806373e1f15a14610539578063741bef1a1461054257806384c2f2b5146105555780638da5cb5b1461055e575f80fd5b806360da3e83146104a357806368759bdc146104b05780636cfd1553146104d2578063715018a6146104e5578063724e78da146104ed57806372b6873d14610500575f80fd5b80632ff2ec351161021d5780633e413bee116101d75780633e413bee146104145780633fc8cef31461043b57806344c7f01b1461046257806346904840146104755780634df75a7f14610488578063583093d414610490575f80fd5b80632ff2ec35146103b65780633552c62f146103be5780633a590c06146103c65780633aecd0e3146103db5780633b431e92146103ee5780633d97457d14610401575f80fd5b80631a6e65861161026e5780631a6e6586146103535780631c481e2d1461035c578063249d39e91461036f57806324a9d8531461037857806324f2fe2414610381578063274dada0146103a3575f80fd5b806301d22ccd146102b557806303acaa99146102e55780630da254b4146102fb5780630efe6a8b146103105780631656819f1461032357806317beffee1461034a575b5f80fd5b6002546102c8906001600160a01b031681565b6040516001600160a01b0390911681526020015b60405180910390f35b6102ed60c881565b6040519081526020016102dc565b61030e610309366004611d3e565b610659565b005b6102ed61031e366004611d73565b61067b565b6102c87f000000000000000000000000000000000000000000000000000000000000000081565b6102ed60045481565b6102ed600d5481565b61030e61036a366004611d3e565b610a2d565b6102ed61271081565b6102ed600e5481565b600c5461039390610100900460ff1681565b60405190151581526020016102dc565b61030e6103b1366004611da3565b610a48565b61030e610a88565b6102ed610b0f565b6103ce610c7e565b6040516102dc9190611dba565b6102ed6103e9366004611e06565b610cde565b61030e6103fc366004611e06565b610d4c565b61030e61040f366004611e1f565b610d76565b6102c87f000000000000000000000000000000000000000000000000000000000000000081565b6102c87f000000000000000000000000000000000000000000000000000000000000000081565b61030e610470366004611e58565b610dba565b600f546102c8906001600160a01b031681565b6007546102ed565b61030e61049e366004611e06565b610edb565b600c546103939060ff1681565b6103936104be366004611e06565b60086020525f908152604090205460ff1681565b61030e6104e0366004611e06565b6110e1565b61030e61110b565b61030e6104fb366004611e06565b61111e565b61030e61050e366004611da3565b611148565b61030e610521366004611da3565b6111d9565b61030e610534366004611da3565b61122b565b6102ed610e1081565b6001546102c8906001600160a01b031681565b6102ed60065481565b5f546001600160a01b03166102c8565b61059061057c366004611e06565b60096020525f908152604090205460ff1681565b60405160ff90911681526020016102dc565b6103936105b0366004611e80565b611238565b6102ed670de0b6b3a764000081565b6102ed60055481565b6102ed611251565b6102c86105e3366004611da3565b611317565b6102ed600b5481565b6102ed600a5481565b6102ed610608366004611f03565b61133f565b6003546102c8906001600160a01b031681565b61030e61062e366004611e06565b61178b565b61030e610641366004611e06565b611895565b61030e610654366004611e06565b6118bf565b6106616118f9565b600c80549115156101000261ff0019909216919091179055565b5f610684611925565b600c5460ff16156106a85760405163deeb694360e01b815260040160405180910390fd5b825f036106c857604051631f2a200560e01b815260040160405180910390fd5b7f00000000000000000000000000000000000000000000000000000000000000006001600160a01b0316846001600160a01b03161415801561073c57507f00000000000000000000000000000000000000000000000000000000000000006001600160a01b0316846001600160a01b031614155b1561075a5760405163c1ab6dc160e01b815260040160405180910390fd5b61076f6001600160a01b038516333086611940565b6001546040516341976e0960e01b81526001600160a01b0386811660048301525f9216906341976e0990602401602060405180830381865afa1580156107b7573d5f803e3d5ffd5b505050506040513d601f19601f820116820180604052508101906107db9190611f25565b90505f6107e78661197c565b90505f6107f582600a612030565b6107ff848861203e565b6108099190612055565b9050600d5481101561082e5760405163860b82a960e01b815260040160405180910390fd5b5f612710600e5483610840919061203e565b61084a9190612055565b90505f6108578284612074565b90505f610862610b0f565b90505f7f00000000000000000000000000000000000000000000000000000000000000006001600160a01b03166318160ddd6040518163ffffffff1660e01b8152600401602060405180830381865afa1580156108c1573d5f803e3d5ffd5b505050506040513d601f19601f820116820180604052508101906108e59190611f25565b90508015806108f2575081155b156108ff57829750610917565b8161090a828561203e565b6109149190612055565b97505b8888101561093857604051638199f5f360e01b815260040160405180910390fd5b6040516340c10f1960e01b8152336004820152602481018990527f00000000000000000000000000000000000000000000000000000000000000006001600160a01b0316906340c10f19906044015f604051808303815f87803b15801561099d575f80fd5b505af11580156109af573d5f803e3d5ffd5b505050506109bb6119e8565b604080518b8152602081018a90529081018490526001600160a01b038c169033907f4e2ca0515ed1aef1395f66b5303bb5d6f1bf9d61a353fa53f73f8ac9973fa9f69060600160405180910390a350505050505050610a2660015f805160206120fc83398151915255565b9392505050565b610a356118f9565b600c805460ff1916911515919091179055565b610a506118f9565b6004805490829055604051829082907f479871800db6e22c5bc2cdf941ee38e682b55c5e16dad060be1e86e7c852b31e905f90a35050565b600554610aa857604051631f2a200560e01b815260040160405180910390fd5b600654421015610acb57604051634ef3adc360e01b815260040160405180910390fd5b6004805460058054928390555f90819055600681905560405191929183917f479871800db6e22c5bc2cdf941ee38e682b55c5e16dad060be1e86e7c852b31e91a350565b5f805b600754811015610c7a575f60078281548110610b3057610b30612087565b5f9182526020822001546040516370a0823160e01b81523060048201526001600160a01b03909116925082906370a0823190602401602060405180830381865afa158015610b80573d5f803e3d5ffd5b505050506040513d601f19601f82011682018060405250810190610ba49190611f25565b90508015610c70576001546040516341976e0960e01b81526001600160a01b0384811660048301525f9216906341976e0990602401602060405180830381865afa158015610bf4573d5f803e3d5ffd5b505050506040513d601f19601f82011682018060405250810190610c189190611f25565b6001600160a01b0384165f9081526009602052604081205491925090610c4290849060ff16611a3c565b9050670de0b6b3a7640000610c57838361203e565b610c619190612055565b610c6b908761209b565b955050505b5050600101610b12565b5090565b60606007805480602002602001604051908101604052809291908181526020018280548015610cd457602002820191905f5260205f20905b81546001600160a01b03168152600190910190602001808311610cb6575b5050505050905090565b6040516370a0823160e01b81523060048201525f906001600160a01b038316906370a0823190602401602060405180830381865afa158015610d22573d5f803e3d5ffd5b505050506040513d601f19601f82011682018060405250810190610d469190611f25565b92915050565b610d546118f9565b600380546001600160a01b0319166001600160a01b0392909216919091179055565b6002546001600160a01b03163314610da1576040516309478a2f60e31b815260040160405180910390fd5b610db56001600160a01b0384168383611aa3565b505050565b6002546001600160a01b03163314610de5576040516309478a2f60e31b815260040160405180910390fd5b610dfa6001600160a01b038316333084611940565b6001600160a01b0382165f9081526008602052604090205460ff16610ed7576007805460018082019092557fa66cc928b5edb82af9bd49922954155ab7b0942694bea4ce44661d9a8736c6880180546001600160a01b0319166001600160a01b0385169081179091555f908152600860205260409020805460ff19169091179055610e848261197c565b6001600160a01b0383165f81815260096020526040808220805460ff191660ff9590951694909417909355915190917f784c8f4dbf0ffedd6e72c76501c545a70f8b203b30a26ce542bf92ba87c248a491a25b5050565b6002546001600160a01b03163314610f06576040516309478a2f60e31b815260040160405180910390fd5b6001600160a01b0381165f9081526008602052604090205460ff168015610f9057506040516370a0823160e01b81523060048201526001600160a01b038216906370a0823190602401602060405180830381865afa158015610f6a573d5f803e3d5ffd5b505050506040513d601f19601f82011682018060405250810190610f8e9190611f25565b155b156110de576001600160a01b0381165f908152600860205260408120805460ff191690555b6007548110156110a957816001600160a01b031660078281548110610fdc57610fdc612087565b5f918252602090912001546001600160a01b0316036110a1576007805461100590600190612074565b8154811061101557611015612087565b5f91825260209091200154600780546001600160a01b03909216918390811061104057611040612087565b905f5260205f20015f6101000a8154816001600160a01b0302191690836001600160a01b03160217905550600780548061107c5761107c6120ae565b5f8281526020902081015f1990810180546001600160a01b03191690550190556110a9565b600101610fb5565b506040516001600160a01b038216907f4c910b69fe65a61f7531b9c5042b2329ca7179c77290aa7e2eb3afa3c8511fd3905f90a25b50565b6110e96118f9565b600280546001600160a01b0319166001600160a01b0392909216919091179055565b6111136118f9565b61111c5f611ad8565b565b6111266118f9565b600180546001600160a01b0319166001600160a01b0392909216919091179055565b6003546001600160a01b0316331480159061116d57505f546001600160a01b03163314155b1561118b57604051631083853d60e01b815260040160405180910390fd5b600581905561119c610e104261209b565b600681905560405190815281907f292e304c189ef2fc433c40fb5e3edbda3e61bafe19f05e7f6e5f3064f06657309060200160405180910390a250565b6111e16118f9565b60648111156112265760405162461bcd60e51b815260206004820152600c60248201526b08ccaca40e8dede40d0d2ced60a31b60448201526064015b60405180910390fd5b600e55565b6112336118f9565b600d55565b5f61124860045486868686611b27565b95945050505050565b5f807f00000000000000000000000000000000000000000000000000000000000000006001600160a01b03166318160ddd6040518163ffffffff1660e01b8152600401602060405180830381865afa1580156112af573d5f803e3d5ffd5b505050506040513d601f19601f820116820180604052508101906112d39190611f25565b9050805f036112eb57670de0b6b3a764000091505090565b80670de0b6b3a76400006112fd610b0f565b611307919061203e565b6113119190612055565b91505090565b60078181548110611326575f80fd5b5f918252602090912001546001600160a01b0316905081565b5f611348611925565b600c54610100900460ff161561137157604051630df65d9f60e01b815260040160405180910390fd5b835f0361139157604051631f2a200560e01b815260040160405180910390fd5b7f00000000000000000000000000000000000000000000000000000000000000006001600160a01b0316836001600160a01b03161415801561140557507f00000000000000000000000000000000000000000000000000000000000000006001600160a01b0316836001600160a01b031614155b156114235760405163c1ab6dc160e01b815260040160405180910390fd5b5f7f00000000000000000000000000000000000000000000000000000000000000006001600160a01b03166318160ddd6040518163ffffffff1660e01b8152600401602060405180830381865afa158015611480573d5f803e3d5ffd5b505050506040513d601f19601f820116820180604052508101906114a49190611f25565b9050805f036114c657604051631f2a200560e01b815260040160405180910390fd5b5f6114cf610b0f565b90505f826114dd888461203e565b6114e79190612055565b90505f612710600e54836114fb919061203e565b6115059190612055565b90505f6115128284612074565b6001546040516341976e0960e01b81526001600160a01b038b811660048301529293505f92909116906341976e0990602401602060405180830381865afa15801561155f573d5f803e3d5ffd5b505050506040513d601f19601f820116820180604052508101906115839190611f25565b90505f61158f8a61197c565b90508161159d82600a612030565b6115a7908561203e565b6115b19190612055565b9750888810156115d457604051638199f5f360e01b815260040160405180910390fd5b6040516370a0823160e01b81523060048201525f906001600160a01b038c16906370a0823190602401602060405180830381865afa158015611618573d5f803e3d5ffd5b505050506040513d601f19601f8201168201806040525081019061163c9190611f25565b9050888110156116875760405162461bcd60e51b8152602060048201526016602482015275496e73756666696369656e74206c697175696469747960501b604482015260640161121d565b60405163079cc67960e41b8152336004820152602481018d90526001600160a01b037f000000000000000000000000000000000000000000000000000000000000000016906379cc6790906044015f604051808303815f87803b1580156116ec575f80fd5b505af11580156116fe573d5f803e3d5ffd5b50611717925050506001600160a01b038c16338b611aa3565b61171f6119e8565b604080518d8152602081018b90529081018590526001600160a01b038c169033907f215abfcd108b85fbee47f26fda2de66f90f14fa5fcaf0201698ad8ac9323545f9060600160405180910390a35050505050505050610a2660015f805160206120fc83398151915255565b6002546001600160a01b031633146117b6576040516309478a2f60e31b815260040160405180910390fd5b6001600160a01b0381165f9081526008602052604090205460ff166110de576007805460018082019092557fa66cc928b5edb82af9bd49922954155ab7b0942694bea4ce44661d9a8736c6880180546001600160a01b0319166001600160a01b0384169081179091555f908152600860205260409020805460ff191690911790556118408161197c565b6001600160a01b0382165f81815260096020526040808220805460ff191660ff9590951694909417909355915190917f784c8f4dbf0ffedd6e72c76501c545a70f8b203b30a26ce542bf92ba87c248a491a250565b61189d6118f9565b600f80546001600160a01b0319166001600160a01b0392909216919091179055565b6118c76118f9565b6001600160a01b0381166118f057604051631e4fbdf760e01b81525f600482015260240161121d565b6110de81611ad8565b5f546001600160a01b0316331461111c5760405163118cdaa760e01b815233600482015260240161121d565b61192d611b4d565b60025f805160206120fc83398151915255565b61194e848484846001611b7c565b61197657604051635274afe760e01b81526001600160a01b038516600482015260240161121d565b50505050565b5f816001600160a01b031663313ce5676040518163ffffffff1660e01b8152600401602060405180830381865afa9250505080156119d7575060408051601f3d908101601f191682019092526119d4918101906120c2565b60015b610d4657506012919050565b919050565b6119f0610b0f565b600a81905542600b8190556040517f1e1223c1f6274c6d64fdb08c485e192bd2896c9abf70e840e199ac1f54d6d1d592611a3292908252602082015260400190565b60405180910390a1565b5f60128260ff161015611a7057611a548260126120e2565b611a5f90600a612030565b611a69908461203e565b9050610d46565b60128260ff161115611a9c57611a876012836120e2565b611a9290600a612030565b611a699084612055565b5090919050565b611ab08383836001611be9565b610db557604051635274afe760e01b81526001600160a01b038416600482015260240161121d565b5f80546001600160a01b038381166001600160a01b0319831681178455604051919092169283917f8be0079c531659141344cd1fd0a4f28419497f9722a3daafe3b4186f6b6457e09190a35050565b5f80611b338686611c4b565b905086611b41858584611caf565b14979650505050505050565b5f805160206120fc8339815191525460020361111c57604051633ee5aeb560e01b815260040160405180910390fd5b6040516323b872dd60e01b5f8181526001600160a01b038781166004528616602452604485905291602083606481808c5af1925060015f51148316611bd8578383151615611bcc573d5f823e3d81fd5b5f883b113d1516831692505b604052505f60605295945050505050565b60405163a9059cbb60e01b5f8181526001600160a01b038616600452602485905291602083604481808b5af1925060015f51148316611c3f578383151615611c33573d5f823e3d81fd5b5f873b113d1516831692505b60405250949350505050565b6040516bffffffffffffffffffffffff19606084901b166020820152603481018290525f9060540160408051601f19818403018152828252805160209182012090830152015b60405160208183030381529060405280519060200120905092915050565b805f5b83811015611ce657611cdc82868684818110611cd057611cd0612087565b90506020020135611cee565b9150600101611cb2565b509392505050565b5f818310611d2557604080516020810184905290810184905260600160405160208183030381529060405280519060200120610a26565b6040805160208101859052908101839052606001611c91565b5f60208284031215611d4e575f80fd5b81358015158114610a26575f80fd5b80356001600160a01b03811681146119e3575f80fd5b5f805f60608486031215611d85575f80fd5b611d8e84611d5d565b95602085013595506040909401359392505050565b5f60208284031215611db3575f80fd5b5035919050565b602080825282518282018190525f9190848201906040850190845b81811015611dfa5783516001600160a01b031683529284019291840191600101611dd5565b50909695505050505050565b5f60208284031215611e16575f80fd5b610a2682611d5d565b5f805f60608486031215611e31575f80fd5b611e3a84611d5d565b9250611e4860208501611d5d565b9150604084013590509250925092565b5f8060408385031215611e69575f80fd5b611e7283611d5d565b946020939093013593505050565b5f805f8060608587031215611e93575f80fd5b611e9c85611d5d565b935060208501359250604085013567ffffffffffffffff80821115611ebf575f80fd5b818701915087601f830112611ed2575f80fd5b813581811115611ee0575f80fd5b8860208260051b8501011115611ef4575f80fd5b95989497505060200194505050565b5f805f60608486031215611f15575f80fd5b83359250611e4860208501611d5d565b5f60208284031215611f35575f80fd5b5051919050565b634e487b7160e01b5f52601160045260245ffd5b600181815b80851115611f8a57815f1904821115611f7057611f70611f3c565b80851615611f7d57918102915b93841c9390800290611f55565b509250929050565b5f82611fa057506001610d46565b81611fac57505f610d46565b8160018114611fc25760028114611fcc57611fe8565b6001915050610d46565b60ff841115611fdd57611fdd611f3c565b50506001821b610d46565b5060208310610133831016604e8410600b841016171561200b575081810a610d46565b6120158383611f50565b805f190482111561202857612028611f3c565b029392505050565b5f610a2660ff841683611f92565b8082028115828204841417610d4657610d46611f3c565b5f8261206f57634e487b7160e01b5f52601260045260245ffd5b500490565b81810381811115610d4657610d46611f3c565b634e487b7160e01b5f52603260045260245ffd5b80820180821115610d4657610d46611f3c565b634e487b7160e01b5f52603160045260245ffd5b5f602082840312156120d2575f80fd5b815160ff81168114610a26575f80fd5b60ff8281168282160390811115610d4657610d46611f3c56fe9b779b17422d0df92223018b32b4d1fa46e071723d6817e2486d003becc55f00a2646970667358221220614461f2cd61995fffcb011ad70e72ec6af99d16fa1a9b43857b1c90763e60e464736f6c63430008180033","linkReferences":{}},"methodIdentifiers":{"BPS()":"249d39e9","MAX_WEIGHT_BPS()":"03acaa99","PRICE_PRECISION()":"95082d25","ROOT_DELAY()":"73e1f15a","activateMerkleRoot()":"2ff2ec35","addHeldToken(address)":"e42e1a84","ai500()":"1656819f","cachedNav()":"d248f07e","deposit(address,uint256,uint256)":"0efe6a8b","depositsPaused()":"60da3e83","emergencySetRoot(bytes32)":"274dada0","feeBps()":"24a9d853","feeRecipient()":"46904840","getHeldTokenCount()":"4df75a7f","getHeldTokens()":"3a590c06","getNav()":"3552c62f","getNavPerShare()":"abd894b0","getTokenBalance(address)":"3aecd0e3","heldTokens(uint256)":"b6f9ab4b","indexer()":"e06118b7","isHeldToken(address)":"68759bdc","lastNavUpdate()":"b808e343","minDepositUsd()":"1a6e6586","owner()":"8da5cb5b","pendingMerkleRoot()":"9637f475","pendingRootActivation()":"84c2f2b5","priceFeed()":"741bef1a","queueMerkleRoot(bytes32)":"72b6873d","rebalancer()":"01d22ccd","receiveFromRebalance(address,uint256)":"44c7f01b","redeem(uint256,address,uint256)":"d8780161","redemptionsPaused()":"24f2fe24","removeHeldToken(address)":"583093d4","renounceOwnership()":"715018a6","setDepositsPaused(bool)":"1c481e2d","setFeeBps(uint256)":"72c27b62","setFeeRecipient(address)":"e74b981b","setIndexer(address)":"3b431e92","setMinDepositUsd(uint256)":"73b69321","setPriceFeed(address)":"724e78da","setRebalancer(address)":"6cfd1553","setRedemptionsPaused(bool)":"0da254b4","tokenDecimals(address)":"8ee573ac","transferForRebalance(address,address,uint256)":"3d97457d","transferOwnership(address)":"f2fde38b","usdc()":"3e413bee","verifyWeight(address,uint256,bytes32[])":"94d02361","weightsMerkleRoot()":"17beffee","weth()":"3fc8cef3"},"id":35}