{"abi":[{"type":"function","name":"getPrice","inputs":[{"name":"token","type":"address","internalType":"address"}],"outputs":[{"name":"","type":"uint256","internalType":"uint256"}],"stateMutability":"view"},{"type":"function","name":"getPrices","inputs":[{"name":"tokens","type":"address[]","internalType":"address[]"}],"outputs":[{"name":"result","type":"uint256[]","internalType":"uint256[]"}],"stateMutability":"view"},{"type":"function","name":"hasFeed","inputs":[{"name":"token","type":"address","internalType":"address"}],"outputs":[{"name":"","type":"bool","internalType":"bool"}],"stateMutability":"view"},{"type":"function","name":"prices","inputs":[{"name":"","type":"address","internalType":"address"}],"outputs":[{"name":"","type":"uint256","internalType":"uint256"}],"stateMutability":"view"},{"type":"function","name":"setPrice","inputs":[{"name":"token","type":"address","internalType":"address"},{"name":"price","type":"uint256","internalType":"uint256"}],"outputs":[],"stateMutability":"nonpayable"}],"bytecode":{"object":"0x608060405234801561000f575f80fd5b506103708061001d5f395ff3fe608060405234801561000f575f80fd5b5060043610610054575f3560e01c8062e4768b146100585780630268d3791461008357806341976e09146100c25780638fb5a482146100f8578063cfed246b14610118575b5f80fd5b610081610066366004610218565b6001600160a01b039091165f90815260208190526040902055565b005b6100ad610091366004610240565b6001600160a01b03165f90815260208190526040902054151590565b60405190151581526020015b60405180910390f35b6100ea6100d0366004610240565b6001600160a01b03165f9081526020819052604090205490565b6040519081526020016100b9565b61010b610106366004610260565b610137565b6040516100b991906102cf565b6100ea610126366004610240565b5f6020819052908152604090205481565b60608167ffffffffffffffff81111561015257610152610312565b60405190808252806020026020018201604052801561017b578160200160208202803683370190505b5090505f5b828110156101f6575f8085858481811061019c5761019c610326565b90506020020160208101906101b19190610240565b6001600160a01b03166001600160a01b031681526020019081526020015f20548282815181106101e3576101e3610326565b6020908102919091010152600101610180565b5092915050565b80356001600160a01b0381168114610213575f80fd5b919050565b5f8060408385031215610229575f80fd5b610232836101fd565b946020939093013593505050565b5f60208284031215610250575f80fd5b610259826101fd565b9392505050565b5f8060208385031215610271575f80fd5b823567ffffffffffffffff80821115610288575f80fd5b818501915085601f83011261029b575f80fd5b8135818111156102a9575f80fd5b8660208260051b85010111156102bd575f80fd5b60209290920196919550909350505050565b602080825282518282018190525f9190848201906040850190845b81811015610306578351835292840192918401916001016102ea565b50909695505050505050565b634e487b7160e01b5f52604160045260245ffd5b634e487b7160e01b5f52603260045260245ffdfea2646970667358221220032f7dfad1d1ca7bde9fc77094ae6872557307b72850eefeac308efed78bf67e64736f6c63430008180033","linkReferences":{}},"methodIdentifiers":{"getPrice(address)":"41976e09","getPrices(address[])":"8fb5a482","hasFeed(address)":"0268d379","prices(address)":"cfed246b","setPrice(address,uint256)":"00e4768b"},"id":49}