{"abi":[{"type":"constructor","inputs":[],"stateMutability":"nonpayable"},{"type":"function","name":"allowance","inputs":[{"name":"owner","type":"address","internalType":"address"},{"name":"spender","type":"address","internalType":"address"}],"outputs":[{"name":"","type":"uint256","internalType":"uint256"}],"stateMutability":"view"},{"type":"function","name":"approve","inputs":[{"name":"spender","type":"address","internalType":"address"},{"name":"value","type":"uint256","internalType":"uint256"}],"outputs":[{"name":"","type":"bool","internalType":"bool"}],"stateMutability":"nonpayable"},{"type":"function","name":"balanceOf","inputs":[{"name":"account","type":"address","internalType":"address"}],"outputs":[{"name":"","type":"uint256","internalType":"uint256"}],"stateMutability":"view"},{"type":"function","name":"burn","inputs":[{"name":"value","type":"uint256","internalType":"uint256"}],"outputs":[],"stateMutability":"nonpayable"},{"type":"function","name":"burnFrom","inputs":[{"name":"from","type":"address","internalType":"address"},{"name":"amount","type":"uint256","internalType":"uint256"}],"outputs":[],"stateMutability":"nonpayable"},{"type":"function","name":"decimals","inputs":[],"outputs":[{"name":"","type":"uint8","internalType":"uint8"}],"stateMutability":"pure"},{"type":"function","name":"mint","inputs":[{"name":"to","type":"address","internalType":"address"},{"name":"amount","type":"uint256","internalType":"uint256"}],"outputs":[],"stateMutability":"nonpayable"},{"type":"function","name":"name","inputs":[],"outputs":[{"name":"","type":"string","internalType":"string"}],"stateMutability":"view"},{"type":"function","name":"owner","inputs":[],"outputs":[{"name":"","type":"address","internalType":"address"}],"stateMutability":"view"},{"type":"function","name":"renounceOwnership","inputs":[],"outputs":[],"stateMutability":"nonpayable"},{"type":"function","name":"setVault","inputs":[{"name":"_vault","type":"address","internalType":"address"}],"outputs":[],"stateMutability":"nonpayable"},{"type":"function","name":"symbol","inputs":[],"outputs":[{"name":"","type":"string","internalType":"string"}],"stateMutability":"view"},{"type":"function","name":"totalSupply","inputs":[],"outputs":[{"name":"","type":"uint256","internalType":"uint256"}],"stateMutability":"view"},{"type":"function","name":"transfer","inputs":[{"name":"to","type":"address","internalType":"address"},{"name":"value","type":"uint256","internalType":"uint256"}],"outputs":[{"name":"","type":"bool","internalType":"bool"}],"stateMutability":"nonpayable"},{"type":"function","name":"transferFrom","inputs":[{"name":"from","type":"address","internalType":"address"},{"name":"to","type":"address","internalType":"address"},{"name":"value","type":"uint256","internalType":"uint256"}],"outputs":[{"name":"","type":"bool","internalType":"bool"}],"stateMutability":"nonpayable"},{"type":"function","name":"transferOwnership","inputs":[{"name":"newOwner","type":"address","internalType":"address"}],"outputs":[],"stateMutability":"nonpayable"},{"type":"function","name":"vault","inputs":[],"outputs":[{"name":"","type":"address","internalType":"address"}],"stateMutability":"view"},{"type":"event","name":"Approval","inputs":[{"name":"owner","type":"address","indexed":true,"internalType":"address"},{"name":"spender","type":"address","indexed":true,"internalType":"address"},{"name":"value","type":"uint256","indexed":false,"internalType":"uint256"}],"anonymous":false},{"type":"event","name":"OwnershipTransferred","inputs":[{"name":"previousOwner","type":"address","indexed":true,"internalType":"address"},{"name":"newOwner","type":"address","indexed":true,"internalType":"address"}],"anonymous":false},{"type":"event","name":"Transfer","inputs":[{"name":"from","type":"address","indexed":true,"internalType":"address"},{"name":"to","type":"address","indexed":true,"internalType":"address"},{"name":"value","type":"uint256","indexed":false,"internalType":"uint256"}],"anonymous":false},{"type":"event","name":"VaultUpdated","inputs":[{"name":"oldVault","type":"address","indexed":true,"internalType":"address"},{"name":"newVault","type":"address","indexed":true,"internalType":"address"}],"anonymous":false},{"type":"error","name":"ERC20InsufficientAllowance","inputs":[{"name":"spender","type":"address","internalType":"address"},{"name":"allowance","type":"uint256","internalType":"uint256"},{"name":"needed","type":"uint256","internalType":"uint256"}]},{"type":"error","name":"ERC20InsufficientBalance","inputs":[{"name":"sender","type":"address","internalType":"address"},{"name":"balance","type":"uint256","internalType":"uint256"},{"name":"needed","type":"uint256","internalType":"uint256"}]},{"type":"error","name":"ERC20InvalidApprover","inputs":[{"name":"approver","type":"address","internalType":"address"}]},{"type":"error","name":"ERC20InvalidReceiver","inputs":[{"name":"receiver","type":"address","internalType":"address"}]},{"type":"error","name":"ERC20InvalidSender","inputs":[{"name":"sender","type":"address","internalType":"address"}]},{"type":"error","name":"ERC20InvalidSpender","inputs":[{"name":"spender","type":"address","internalType":"address"}]},{"type":"error","name":"OnlyVault","inputs":[]},{"type":"error","name":"OwnableInvalidOwner","inputs":[{"name":"owner","type":"address","internalType":"address"}]},{"type":"error","name":"OwnableUnauthorizedAccount","inputs":[{"name":"account","type":"address","internalType":"address"}]},{"type":"error","name":"ZeroAddress","inputs":[]}],"bytecode":{"object":"0x608060405234801562000010575f80fd5b50336040518060400160405280600b81526020016a082cecadce84092dcc8caf60ab1b815250604051806040016040528060048152602001630828e92b60e31b8152508160039081620000649190620001a5565b506004620000738282620001a5565b5050506001600160a01b038116620000a457604051631e4fbdf760e01b81525f600482015260240160405180910390fd5b620000af81620000b6565b5062000271565b600580546001600160a01b038381166001600160a01b0319831681179093556040519116919082907f8be0079c531659141344cd1fd0a4f28419497f9722a3daafe3b4186f6b6457e0905f90a35050565b634e487b7160e01b5f52604160045260245ffd5b600181811c908216806200013057607f821691505b6020821081036200014f57634e487b7160e01b5f52602260045260245ffd5b50919050565b601f821115620001a057805f5260205f20601f840160051c810160208510156200017c5750805b601f840160051c820191505b818110156200019d575f815560010162000188565b50505b505050565b81516001600160401b03811115620001c157620001c162000107565b620001d981620001d284546200011b565b8462000155565b602080601f8311600181146200020f575f8415620001f75750858301515b5f19600386901b1c1916600185901b17855562000269565b5f85815260208120601f198616915b828110156200023f578886015182559484019460019091019084016200021e565b50858210156200025d57878501515f19600388901b60f8161c191681555b505060018460011b0185555b505050505050565b610a56806200027f5f395ff3fe608060405234801561000f575f80fd5b5060043610610106575f3560e01c806370a082311161009e57806395d89b411161006e57806395d89b4114610222578063a9059cbb1461022a578063dd62ed3e1461023d578063f2fde38b14610275578063fbfa77cf14610288575f80fd5b806370a08231146101ba578063715018a6146101e257806379cc6790146101ea5780638da5cb5b146101fd575f80fd5b8063313ce567116100d9578063313ce5671461017057806340c10f191461017f57806342966c68146101945780636817031b146101a7575f80fd5b806306fdde031461010a578063095ea7b31461012857806318160ddd1461014b57806323b872dd1461015d575b5f80fd5b61011261029b565b60405161011f9190610899565b60405180910390f35b61013b610136366004610900565b61032b565b604051901515815260200161011f565b6002545b60405190815260200161011f565b61013b61016b366004610928565b610344565b6040516012815260200161011f565b61019261018d366004610900565b610367565b005b6101926101a2366004610961565b6103a0565b6101926101b5366004610978565b6103ad565b61014f6101c8366004610978565b6001600160a01b03165f9081526020819052604090205490565b61019261042d565b6101926101f8366004610900565b610440565b6005546001600160a01b03165b6040516001600160a01b03909116815260200161011f565b610112610475565b61013b610238366004610900565b610484565b61014f61024b366004610998565b6001600160a01b039182165f90815260016020908152604080832093909416825291909152205490565b610192610283366004610978565b610491565b60065461020a906001600160a01b031681565b6060600380546102aa906109c9565b80601f01602080910402602001604051908101604052809291908181526020018280546102d6906109c9565b80156103215780601f106102f857610100808354040283529160200191610321565b820191905f5260205f20905b81548152906001019060200180831161030457829003601f168201915b5050505050905090565b5f336103388185856104d0565b60019150505b92915050565b5f336103518582856104e2565b61035c85858561055e565b506001949350505050565b6006546001600160a01b0316331461039257604051638d1af8bd60e01b815260040160405180910390fd5b61039c82826105bb565b5050565b6103aa33826105ef565b50565b6103b5610623565b6001600160a01b0381166103dc5760405163d92e233d60e01b815260040160405180910390fd5b600680546001600160a01b038381166001600160a01b0319831681179093556040519116919082907f483bdedaaf23706a9800ac1af0d852b34927780d79f9d6ba60a80c7cad75ea39905f90a35050565b610435610623565b61043e5f610650565b565b6006546001600160a01b0316331461046b57604051638d1af8bd60e01b815260040160405180910390fd5b61039c82826105ef565b6060600480546102aa906109c9565b5f3361033881858561055e565b610499610623565b6001600160a01b0381166104c757604051631e4fbdf760e01b81525f60048201526024015b60405180910390fd5b6103aa81610650565b6104dd83838360016106a1565b505050565b6001600160a01b038381165f908152600160209081526040808320938616835292905220545f19811015610558578181101561054a57604051637dc7a0d960e11b81526001600160a01b038416600482015260248101829052604481018390526064016104be565b61055884848484035f6106a1565b50505050565b6001600160a01b03831661058757604051634b637e8f60e11b81525f60048201526024016104be565b6001600160a01b0382166105b05760405163ec442f0560e01b81525f60048201526024016104be565b6104dd838383610773565b6001600160a01b0382166105e45760405163ec442f0560e01b81525f60048201526024016104be565b61039c5f8383610773565b6001600160a01b03821661061857604051634b637e8f60e11b81525f60048201526024016104be565b61039c825f83610773565b6005546001600160a01b0316331461043e5760405163118cdaa760e01b81523360048201526024016104be565b600580546001600160a01b038381166001600160a01b0319831681179093556040519116919082907f8be0079c531659141344cd1fd0a4f28419497f9722a3daafe3b4186f6b6457e0905f90a35050565b6001600160a01b0384166106ca5760405163e602df0560e01b81525f60048201526024016104be565b6001600160a01b0383166106f357604051634a1406b160e11b81525f60048201526024016104be565b6001600160a01b038085165f908152600160209081526040808320938716835292905220829055801561055857826001600160a01b0316846001600160a01b03167f8c5be1e5ebec7d5bd14f71427d1e84f3dd0314c0f7b2291e5b200ac8c7c3b9258460405161076591815260200190565b60405180910390a350505050565b6001600160a01b03831661079d578060025f8282546107929190610a01565b9091555061080d9050565b6001600160a01b0383165f90815260208190526040902054818110156107ef5760405163391434e360e21b81526001600160a01b038516600482015260248101829052604481018390526064016104be565b6001600160a01b0384165f9081526020819052604090209082900390555b6001600160a01b03821661082957600280548290039055610847565b6001600160a01b0382165f9081526020819052604090208054820190555b816001600160a01b0316836001600160a01b03167fddf252ad1be2c89b69c2b068fc378daa952ba7f163c4a11628f55a4df523b3ef8360405161088c91815260200190565b60405180910390a3505050565b5f602080835283518060208501525f5b818110156108c5578581018301518582016040015282016108a9565b505f604082860101526040601f19601f8301168501019250505092915050565b80356001600160a01b03811681146108fb575f80fd5b919050565b5f8060408385031215610911575f80fd5b61091a836108e5565b946020939093013593505050565b5f805f6060848603121561093a575f80fd5b610943846108e5565b9250610951602085016108e5565b9150604084013590509250925092565b5f60208284031215610971575f80fd5b5035919050565b5f60208284031215610988575f80fd5b610991826108e5565b9392505050565b5f80604083850312156109a9575f80fd5b6109b2836108e5565b91506109c0602084016108e5565b90509250929050565b600181811c908216806109dd57607f821691505b6020821081036109fb57634e487b7160e01b5f52602260045260245ffd5b50919050565b8082018082111561033e57634e487b7160e01b5f52601160045260245ffdfea264697066735822122069c58170dbbe3e3df62d00d222421571f230dd5e3974ff7f40a7029ad3feceef64736f6c63430008180033","linkReferences":{}},"methodIdentifiers":{"allowance(address,address)":"dd62ed3e","approve(address,uint256)":"095ea7b3","balanceOf(address)":"70a08231","burn(uint256)":"42966c68","burnFrom(address,uint256)":"79cc6790","decimals()":"313ce567","mint(address,uint256)":"40c10f19","name()":"06fdde03","owner()":"8da5cb5b","renounceOwnership()":"715018a6","setVault(address)":"6817031b","symbol()":"95d89b41","totalSupply()":"18160ddd","transfer(address,uint256)":"a9059cbb","transferFrom(address,address,uint256)":"23b872dd","transferOwnership(address)":"f2fde38b","vault()":"fbfa77cf"},"id":36}