{"abi":[{"type":"constructor","inputs":[],"stateMutability":"nonpayable"},{"type":"function","name":"MAX_STALENESS","inputs":[],"outputs":[{"name":"","type":"uint256","internalType":"uint256"}],"stateMutability":"view"},{"type":"function","name":"PRICE_PRECISION","inputs":[],"outputs":[{"name":"","type":"uint256","internalType":"uint256"}],"stateMutability":"view"},{"type":"function","name":"chainlinkFeeds","inputs":[{"name":"","type":"address","internalType":"address"}],"outputs":[{"name":"","type":"address","internalType":"address"}],"stateMutability":"view"},{"type":"function","name":"getPrice","inputs":[{"name":"token","type":"address","internalType":"address"}],"outputs":[{"name":"price","type":"uint256","internalType":"uint256"}],"stateMutability":"view"},{"type":"function","name":"getPrices","inputs":[{"name":"tokens","type":"address[]","internalType":"address[]"}],"outputs":[{"name":"prices","type":"uint256[]","internalType":"uint256[]"}],"stateMutability":"view"},{"type":"function","name":"hasFeed","inputs":[{"name":"token","type":"address","internalType":"address"}],"outputs":[{"name":"exists","type":"bool","internalType":"bool"}],"stateMutability":"view"},{"type":"function","name":"manualPrices","inputs":[{"name":"","type":"address","internalType":"address"}],"outputs":[{"name":"","type":"uint256","internalType":"uint256"}],"stateMutability":"view"},{"type":"function","name":"owner","inputs":[],"outputs":[{"name":"","type":"address","internalType":"address"}],"stateMutability":"view"},{"type":"function","name":"renounceOwnership","inputs":[],"outputs":[],"stateMutability":"nonpayable"},{"type":"function","name":"setChainlinkFeed","inputs":[{"name":"token","type":"address","internalType":"address"},{"name":"feed","type":"address","internalType":"address"}],"outputs":[],"stateMutability":"nonpayable"},{"type":"function","name":"setChainlinkFeeds","inputs":[{"name":"tokens","type":"address[]","internalType":"address[]"},{"name":"feeds","type":"address[]","internalType":"address[]"}],"outputs":[],"stateMutability":"nonpayable"},{"type":"function","name":"setManualPrice","inputs":[{"name":"token","type":"address","internalType":"address"},{"name":"price","type":"uint256","internalType":"uint256"}],"outputs":[],"stateMutability":"nonpayable"},{"type":"function","name":"setTwapWindow","inputs":[{"name":"newWindow","type":"uint32","internalType":"uint32"}],"outputs":[],"stateMutability":"nonpayable"},{"type":"function","name":"setUniswapPool","inputs":[{"name":"token","type":"address","internalType":"address"},{"name":"pool","type":"address","internalType":"address"}],"outputs":[],"stateMutability":"nonpayable"},{"type":"function","name":"transferOwnership","inputs":[{"name":"newOwner","type":"address","internalType":"address"}],"outputs":[],"stateMutability":"nonpayable"},{"type":"function","name":"twapWindow","inputs":[],"outputs":[{"name":"","type":"uint32","internalType":"uint32"}],"stateMutability":"view"},{"type":"function","name":"uniswapPools","inputs":[{"name":"","type":"address","internalType":"address"}],"outputs":[{"name":"","type":"address","internalType":"address"}],"stateMutability":"view"},{"type":"event","name":"ChainlinkFeedSet","inputs":[{"name":"token","type":"address","indexed":true,"internalType":"address"},{"name":"feed","type":"address","indexed":true,"internalType":"address"}],"anonymous":false},{"type":"event","name":"ManualPriceSet","inputs":[{"name":"token","type":"address","indexed":true,"internalType":"address"},{"name":"price","type":"uint256","indexed":false,"internalType":"uint256"}],"anonymous":false},{"type":"event","name":"OwnershipTransferred","inputs":[{"name":"previousOwner","type":"address","indexed":true,"internalType":"address"},{"name":"newOwner","type":"address","indexed":true,"internalType":"address"}],"anonymous":false},{"type":"event","name":"TwapWindowUpdated","inputs":[{"name":"oldWindow","type":"uint32","indexed":false,"internalType":"uint32"},{"name":"newWindow","type":"uint32","indexed":false,"internalType":"uint32"}],"anonymous":false},{"type":"event","name":"UniswapPoolSet","inputs":[{"name":"token","type":"address","indexed":true,"internalType":"address"},{"name":"pool","type":"address","indexed":true,"internalType":"address"}],"anonymous":false},{"type":"error","name":"NegativePrice","inputs":[]},{"type":"error","name":"NoFeedAvailable","inputs":[]},{"type":"error","name":"OwnableInvalidOwner","inputs":[{"name":"owner","type":"address","internalType":"address"}]},{"type":"error","name":"OwnableUnauthorizedAccount","inputs":[{"name":"account","type":"address","internalType":"address"}]},{"type":"error","name":"StalePrice","inputs":[]},{"type":"error","name":"ZeroAddress","inputs":[]}],"bytecode":{"object":"0x60806040526003805463ffffffff1916610708179055348015610020575f80fd5b50338061004657604051631e4fbdf760e01b81525f600482015260240160405180910390fd5b61004f81610055565b506100a4565b5f80546001600160a01b038381166001600160a01b0319831681178455604051919092169283917f8be0079c531659141344cd1fd0a4f28419497f9722a3daafe3b4186f6b6457e09190a35050565b610e73806100b15f395ff3fe608060405234801561000f575f80fd5b5060043610610106575f3560e01c80638107e1331161009e578063a95121b51161006e578063a95121b51461024d578063caca95a414610260578063e8c1650014610269578063f04c98ca14610291578063f2fde38b146102b0575f80fd5b80638107e133146101e95780638da5cb5b1461020e5780638fb5a4821461021e57806395082d251461023e575f80fd5b806341976e09116100d957806341976e091461019a5780635f553545146101bb57806369ef32d2146101ce578063715018a6146101e1575f80fd5b806301f49a4d1461010a5780630268d3791461011f57806332e4b7f11461014757806335dda72f14610187575b5f80fd5b61011d610118366004610a8c565b6102c3565b005b61013261012d366004610b0e565b610486565b60405190151581526020015b60405180910390f35b61016f610155366004610b0e565b60026020525f90815260409020546001600160a01b031681565b6040516001600160a01b03909116815260200161013e565b61011d610195366004610b2e565b6104ec565b6101ad6101a8366004610b0e565b610571565b60405190815260200161013e565b61011d6101c9366004610b5f565b61061d565b61011d6101dc366004610b2e565b610680565b61011d610705565b6003546101f99063ffffffff1681565b60405163ffffffff909116815260200161013e565b5f546001600160a01b031661016f565b61023161022c366004610b82565b610718565b60405161013e9190610bc1565b6101ad670de0b6b3a764000081565b61011d61025b366004610c04565b6107bf565b6101ad610e1081565b61016f610277366004610b0e565b60016020525f90815260409020546001600160a01b031681565b6101ad61029f366004610b0e565b60046020525f908152604090205481565b61011d6102be366004610b0e565b61081f565b6102cb61085c565b8281146103115760405162461bcd60e51b815260206004820152600f60248201526e098cadccee8d040dad2e6dac2e8c6d608b1b60448201526064015b60405180910390fd5b5f5b8381101561047f575f85858381811061032e5761032e610c2c565b90506020020160208101906103439190610b0e565b6001600160a01b03160361036a5760405163d92e233d60e01b815260040160405180910390fd5b82828281811061037c5761037c610c2c565b90506020020160208101906103919190610b0e565b60015f8787858181106103a6576103a6610c2c565b90506020020160208101906103bb9190610b0e565b6001600160a01b03908116825260208201929092526040015f2080546001600160a01b031916929091169190911790558282828181106103fd576103fd610c2c565b90506020020160208101906104129190610b0e565b6001600160a01b031685858381811061042d5761042d610c2c565b90506020020160208101906104429190610b0e565b6001600160a01b03167fb9b75140a682094a10720170347bc8e03bfd71f1bb59d103cd8dc0782c52568360405160405180910390a3600101610313565b5050505050565b6001600160a01b0381165f908152600460205260408120541515806104c357506001600160a01b038281165f908152600160205260409020541615155b806104e657506001600160a01b038281165f908152600260205260409020541615155b92915050565b6104f461085c565b6001600160a01b03821661051b5760405163d92e233d60e01b815260040160405180910390fd5b6001600160a01b038281165f8181526002602052604080822080546001600160a01b0319169486169485179055517fe54dfa491b62705616b0058b97dfdac75b02249971d10dae38a49110d1261aae9190a35050565b6001600160a01b0381165f90815260046020526040812054156105a957506001600160a01b03165f9081526004602052604090205490565b6001600160a01b038083165f908152600160205260409020541680156105e0576105d281610888565b915081156105e05750919050565b6001600160a01b038084165f90815260026020526040902054168015610604575f92505b60405163d530924b60e01b815260040160405180910390fd5b61062561085c565b6003805463ffffffff83811663ffffffff1983168117909355604080519190921680825260208201939093527f81926fb3a8912de60986b62fd895dc1cf91d421af11dec640dad717bc250d6b2910160405180910390a15050565b61068861085c565b6001600160a01b0382166106af5760405163d92e233d60e01b815260040160405180910390fd5b6001600160a01b038281165f8181526001602052604080822080546001600160a01b0319169486169485179055517fb9b75140a682094a10720170347bc8e03bfd71f1bb59d103cd8dc0782c5256839190a35050565b61070d61085c565b6107165f6109f5565b565b60608167ffffffffffffffff81111561073357610733610c40565b60405190808252806020026020018201604052801561075c578160200160208202803683370190505b5090505f5b828110156107b85761079384848381811061077e5761077e610c2c565b90506020020160208101906101a89190610b0e565b8282815181106107a5576107a5610c2c565b6020908102919091010152600101610761565b5092915050565b6107c761085c565b6001600160a01b0382165f8181526004602052604090819020839055517f469ff3a7ada7a8c122e2729e7041dfdabfc5e8b26802fa04d7f00706149c4e24906108139084815260200190565b60405180910390a25050565b61082761085c565b6001600160a01b03811661085057604051631e4fbdf760e01b81525f6004820152602401610308565b610859816109f5565b50565b5f546001600160a01b031633146107165760405163118cdaa760e01b8152336004820152602401610308565b5f808290505f80826001600160a01b031663feaf968c6040518163ffffffff1660e01b815260040160a060405180830381865afa1580156108cb573d5f803e3d5ffd5b505050506040513d601f19601f820116820180604052508101906108ef9190610c6d565b50935050925050610e1081426109059190610ccd565b111561091557505f949350505050565b5f821361092657505f949350505050565b5f836001600160a01b031663313ce5676040518163ffffffff1660e01b8152600401602060405180830381865afa158015610963573d5f803e3d5ffd5b505050506040513d601f19601f820116820180604052508101906109879190610ce0565b905060128160ff1610156109bf576109a0816012610d00565b6109ab90600a610df9565b6109b59084610e07565b9695505050505050565b60128160ff1611156109eb576109d6601282610d00565b6109e190600a610df9565b6109b59084610e1e565b5090949350505050565b5f80546001600160a01b038381166001600160a01b0319831681178455604051919092169283917f8be0079c531659141344cd1fd0a4f28419497f9722a3daafe3b4186f6b6457e09190a35050565b5f8083601f840112610a54575f80fd5b50813567ffffffffffffffff811115610a6b575f80fd5b6020830191508360208260051b8501011115610a85575f80fd5b9250929050565b5f805f8060408587031215610a9f575f80fd5b843567ffffffffffffffff80821115610ab6575f80fd5b610ac288838901610a44565b90965094506020870135915080821115610ada575f80fd5b50610ae787828801610a44565b95989497509550505050565b80356001600160a01b0381168114610b09575f80fd5b919050565b5f60208284031215610b1e575f80fd5b610b2782610af3565b9392505050565b5f8060408385031215610b3f575f80fd5b610b4883610af3565b9150610b5660208401610af3565b90509250929050565b5f60208284031215610b6f575f80fd5b813563ffffffff81168114610b27575f80fd5b5f8060208385031215610b93575f80fd5b823567ffffffffffffffff811115610ba9575f80fd5b610bb585828601610a44565b90969095509350505050565b602080825282518282018190525f9190848201906040850190845b81811015610bf857835183529284019291840191600101610bdc565b50909695505050505050565b5f8060408385031215610c15575f80fd5b610c1e83610af3565b946020939093013593505050565b634e487b7160e01b5f52603260045260245ffd5b634e487b7160e01b5f52604160045260245ffd5b805169ffffffffffffffffffff81168114610b09575f80fd5b5f805f805f60a08688031215610c81575f80fd5b610c8a86610c54565b9450602086015193506040860151925060608601519150610cad60808701610c54565b90509295509295909350565b634e487b7160e01b5f52601160045260245ffd5b818103818111156104e6576104e6610cb9565b5f60208284031215610cf0575f80fd5b815160ff81168114610b27575f80fd5b60ff82811682821603908111156104e6576104e6610cb9565b600181815b80851115610d5357815f1904821115610d3957610d39610cb9565b80851615610d4657918102915b93841c9390800290610d1e565b509250929050565b5f82610d69575060016104e6565b81610d7557505f6104e6565b8160018114610d8b5760028114610d9557610db1565b60019150506104e6565b60ff841115610da657610da6610cb9565b50506001821b6104e6565b5060208310610133831016604e8410600b8410161715610dd4575081810a6104e6565b610dde8383610d19565b805f1904821115610df157610df1610cb9565b029392505050565b5f610b2760ff841683610d5b565b80820281158282048414176104e6576104e6610cb9565b5f82610e3857634e487b7160e01b5f52601260045260245ffd5b50049056fea2646970667358221220fdf290dea2435c0455cc88c1f7a34e6ee76061ad1f671a474447b68d9b0c704464736f6c63430008180033","linkReferences":{}},"methodIdentifiers":{"MAX_STALENESS()":"caca95a4","PRICE_PRECISION()":"95082d25","chainlinkFeeds(address)":"e8c16500","getPrice(address)":"41976e09","getPrices(address[])":"8fb5a482","hasFeed(address)":"0268d379","manualPrices(address)":"f04c98ca","owner()":"8da5cb5b","renounceOwnership()":"715018a6","setChainlinkFeed(address,address)":"69ef32d2","setChainlinkFeeds(address[],address[])":"01f49a4d","setManualPrice(address,uint256)":"a95121b5","setTwapWindow(uint32)":"5f553545","setUniswapPool(address,address)":"35dda72f","transferOwnership(address)":"f2fde38b","twapWindow()":"8107e133","uniswapPools(address)":"32e4b7f1"},"id":39}